:020000040800F2
:10000000406901209D010008B9020108859B000894
:10001000310101084D1E0008413F010800000000A9
:10002000000000000000000000000000F51B0108B7
:100030008524000800000000DD020108752B01087E
:10004000B7010008B7010008B7010008B7010008B0
:10005000B7010008B7010008B7010008B7010008A0
:10006000B7010008B7010008B7010008B701000890
:10007000B7010008511E0008B7010008B7010008C9
:100080005D1E0008B7010008B7010008B7010008AD
:10009000B7010008B7010008B7010008B701000860
:1000A000B7010008E52D0108D92D0108B7010008A6
:1000B000F12D0108B7010008B7010008B7010008D9
:1000C000B7010008B7010008B70100087519010859
:1000D000B7010008B7010008DD3E0108B7010008BC
:1000E000B7010008B7010008B7010008B701000810
:1000F000B7010008B7010008B7010008B701000800
:10010000B7010008B7010008B7010008B7010008EF
:10011000B7010008B7010008FD2D0108B70100086C
:10012000B7010008B7010008B7010008B7010008CF
:10013000B7010008B7010008B7010008B7010008BF
:10014000B7010008D5F70008B7010008000000005B
:10015000B7010008B7010008B7010008B70100089F
:10016000B7010008B7010008B7010008B70100088F
:10017000B7010008B70100080000000000000000FF
:10018000B7010008B7010008DFF80CD000F088FDC7
:100190000048004729C703084069012006488047F6
:1001A00006480047FEE7FEE7FEE7FEE7FEE7FEE75C
:1001B000FEE7FEE7FEE7FEE7352C010889010008AF
:1001C0002DE9F05F0546002092469B46884606468C
:1001D000814640241BE0284641464746224600F01F
:1001E0008FFA53465A46C01A914110D31146184609
:1001F000224600F076FA2D1A67EB01084F46224698
:100200000120002100F06DFA17EB00094E41201E7D
:10021000A4F10104DFDC484631462A464346BDE8E6
:10022000F09F2DE9F0410024061B254671F10006E0
:1002300005DA01240027D0EB070067EB0101161E49
:1002400073F1000605DA0027D2EB0702012567EB00
:100250000303FFF7B5FF86460E4617469C46AC42A1
:1002600004D00025D0EB050E65EB010624B100207B
:10027000D2EB000760EB030C704631463A4663460A
:10028000BDE8F08110B5431A934209D2831888184B
:1002900003E010F8011D03F8011D521EF9D210BD34
:1002A00040EA01039B0703D009E008C9121F08C0F8
:1002B000042AFAD203E011F8013B00F8013B521E78
:1002C000F9D210BDD2B201E000F8012B491EFBD2D9
:1002D00070470022F6E710B513460A460446194651
:1002E000FFF7F0FF204610BD30B505462A460B4605
:1002F00012F8010B13F8014B08B1A042F8D01CB161
:10030000002802D06D1CF1E7284630BD10B5044628
:1003100004E00B7800F8013B03B1491C521EF8D2EF
:10032000204610BDCAB2401E10F8011F8A4202D0FA
:100330000029F9D100207047421C10F8011B002948
:10034000FBD1801A704710B5002200E0521C835C7C
:100350008C5CA34201D1002BF8D1D8B2E1B2401A93
:1003600010BD30B504460020034600E05B1C9342FC
:1003700003D2E05CCD5C401BF8D030BD70B50F4DB2
:1003800000B92868002412E00A4602E09E4203D029
:10039000521C1378002BF9D1DAB2224305D02BB1CD
:1003A00024B1002100F8011B04E00446401C06783B
:1003B000002EE9D12860204670BD0000000000201A
:1003C00030B503461D783DB10A4612F8014B1CB109
:1003D000AC42FAD15B1CF5E7181A30BD30B50546C2
:1003E000002008E00A4602E0A34207D0521C13781E
:1003F000002BF9D1401C2C5C002CF3D130BD000047
:100400000FB400B58DB010A909900B9000914FF07A
:10041000FF300A9000200C90054806900548079090
:100420006A4609A80F9900F08FF90DB05DF814FB2A
:1004300065070008830700082DE9FF5F1D464FF0A0
:10044000FF3BD5E9014691465F464FF00008A96998
:100450007F1C01988847296A824688470028F6D180
:10046000BAF1FF3F0CD024F4C064002E19DD600601
:1004700014D5BAF12B0F09D0BAF12D0F0ED103E02C
:10048000584604B0BDE8F09F44F48064A9697F1C1D
:1004900001988847761E8246002E02DDBAF1300FA1
:1004A00003D0B9F1000F26D032E0A969761E44F4DA
:1004B00000747F1C019888478246002E05DDBAF142
:1004C000780F06D0BAF1580F03D0B9F1000F10D051
:1004D0001EE0B9F1000F02D0B9F1100F18D1A969CF
:1004E000761E24F400747F1C0198884782461020F1
:1004F00002E0082000E00A20814609E008FB090824
:10050000A969761E44F400747F1C019888478246CE
:10051000002E05DD4946504600F002F90028EDDACC
:10052000E96901988847A00502D46FF00100A8E7A7
:10053000E00725D1600613D5600502D5C8F100009B
:1005400000E0404629680A1D2A600968220501D595
:10055000087015E0220701D5088011E008600FE05F
:100560002868011D29600068210502D580F80080F7
:1005700006E0210702D5A0F8008001E0C0F8008065
:1005800038467EE72DE9FF5FD2E901A74FF000086A
:10059000916999461446DDF838B046460198884777
:1005A000054659EA0B0005D009E0A169761C0198BF
:1005B00088470546216A284688470028F5D1681CE7
:1005C00003D05FEACA7005D015E04FF0FF3004B0E9
:1005D000BDE8F09F2068011D2160D0F800800AE08E
:1005E0005FEACA7001D108F8015BA169761C7F1E21
:1005F000019888470546002F1ADD681C18D0B9F10C
:10060000000F0DD0E81705EBD060421120F01F005D
:1006100059F822102A1A012090400142E0D107E047
:10062000BBF1000FDCD1216A284688470028D7D0CB
:10063000E16901988847BBF1000F07D1002E05DD65
:100640005FEACA7002D1002188F80010A068B842A1
:1006500003DDBBF1000F03D017B16FF00100B6E767
:100660003046B4E770B506464AF074FB04680546A8
:100670000A220021304600F0E9F82C6070BD01F03C
:10068000004330B421F0004150EA010206D00A0DC7
:10069000A2F56072C1F31301002A02DC30BC002015
:1006A0007047440F44EAC104C100E01830BC00EBBD
:1006B000C25000F003B930B50B460146002020229D
:1006C000012409E021FA02F59D4205D303FA02F55F
:1006D000491B04FA02F52844151EA2F10102F1DCBF
:1006E00030BD202A04DB203A00FA02F100207047D6
:1006F0009140C2F1200320FA03F319439040704760
:10070000202A04DB203A21FA02F00021704721FA66
:1007100002F3D040C2F120029140084319467047CD
:100720003A2800D2303820F02002412A01D3A2F129
:100730003700884201D34FF0FF3070470268114400
:100740001378016018467047D1600449516104492B
:10075000116200211161114600F0DABA3D0700086C
:10076000FD0C0008426842B1016811F8013B23B159
:10077000521EC0E90012184670470121C160881E50
:10078000704742685AB1C368016843B983688B42B5
:1007900005D0491E521CC0E90012002070474FF0DE
:1007A000FF3070470FB40B0010B58AB00FA900914D
:1007B0000E994FF00004234ACC60214CCDE906424B
:1007C00000D004236FF00042CDE901321E4A0892A6
:1007D00002466B46002000F0C5FC0AB010BC5DF874
:1007E00014FBF0B585B007464FF0FF300091CDE91E
:1007F00001011E46002015460C4604903B466A4601
:10080000314604A8FFF7CEFF04990346601825B1CE
:1008100009B1024600E022462A6000290ED0002BD2
:1008200002DD0099814209D00094001BCDE901044A
:100830003B466A46314604A8FFF7B4FF05B0F0BD59
:100840006507000883070008FD0C00082DE9F04744
:1008500091460F4680460446002614F8015B2DB1F0
:1008600000F048FA0068405DC007F6D12B2D02D099
:100870002D2D18D0641E4A463946204600F08EFDC4
:1008800027B13968A14201D1C7F8008071054FF046
:1008900002040BD54042002803DD4AF05BFA0460F5
:1008A000A007BDE8F08746F48066E4E70028F8DAA0
:1008B0004AF050FA04606FF00040F2E70029A8BF48
:1008C0007047401C490008BF20F00100704710B479
:1008D000B0FA80FC00FA0CF050EA010404BF10BC2E
:1008E000704749B1CCF1200421FA04F411FA0CF15B
:1008F00018BF012121430843A3EB0C01CB1D4FEA94
:1009000000614FEA102042BF002010BC704700EB8E
:10091000C35010440029A4BF10BC7047401C4900BC
:1009200008BF20F0010010BC70472DE9FE4F804643
:1009300081EA0300C00F0C46009021F0004123F033
:100940000045B8EB0200A94105D240462146904639
:100950001C460B46024623F00040104347D0270DAB
:10096000C7F30A00C3F30A510290401A01904028CD
:100970006BDAC3F3130040F4801B0098924620B159
:100980000023D2EB030A63EB0B0B01985946C0F12D
:1009900040025046FFF7A5FE06460D465046594612
:1009A000019A00F095F910EB08006141002487EAF4
:1009B000115284EAE7731A4340D0009A62B3019A55
:1009C000012A4FEA075215DC001B61EB02014FF0D0
:1009D000004202EA0752CDE90042001C41F58011B5
:1009E00032462B4600F038FD03B0BDE8F08F40469C
:1009F0002146F9E7001B61EB0201001C41F5801361
:100A000000185B412018A2F5001747EB030140EAEC
:100A1000D570B6196D4111E06D084FEA360645EA0A
:100A2000C0754FEA0752001B61EB0201001C41F543
:100A3000801149084FEA30000019514132462B46D7
:100A400003B0BDE8F04F00F0F8BC00980122400070
:100A50000023D0EB020263EBE073009821464FEADB
:100A6000E074B8EB000061EB0401E9E783F00043B8
:100A70005BE781F0004158E72DE9FE4F81EA03046E
:100A800004F0004421F0004100944FF0000B23F0EB
:100A9000004350EA01045ED052EA03045BD0C3F382
:100AA0000A54C1F30A552C44A4F2F3340194A0FB78
:100AB0000254C1F3130141F48011C3F3130343F44F
:100AC000801301FB024400FB034E840A970A44EAA8
:100AD000815447EA8357A4FB076802958D0A05FBFA
:100AE00007854FEA932C04FB0C542705029D4FEA1F
:100AF000065847EA1637B5EB08056EEB070C870E6C
:100B0000920E47EA811742EA8312A7FB0201B6EB75
:100B10000B0164EB00042B0D43EA0C335E1844EB2D
:100B20001C50DA465146E7FB0201C5F313044FEAB5
:100B30000B3343EA14534FEA0432019C43EA0603A1
:100B4000A4F10C040294009CCDE900B400F084FCF4
:100B500003B0BDE8F08F00200146F9E72DE9F04D24
:100B600081EA030404F0004B21F0004514464FF0E5
:100B7000000A23F0004150EA050220D054EA0102A5
:100B80001DD0C5F30A570246C5F31303C1F3130082
:100B9000C1F30A5640F4801543F48013A7EB06080E
:100BA000101BD64608F2FD3873EB050002D308F19E
:100BB000010801E092185B41B8F1000F03DA002050
:100BC0000146BDE8F08D00204FF4801106468446B2
:100BD0000EE0171B73EB050705D3121B63EB050330
:100BE00006434CEA010C49084FEA300092185B4179
:100BF00050EA0107EDD152EA030012D082EA040064
:100C000083EA0501084305D0101BAB4106D201223F
:100C1000002306E000224FF0004302E06FF00102E3
:100C200053101AEB06004CEB085110EB0A0041EB95
:100C30000B01BDE8F04D00F000BCC1F30A52C1F356
:100C4000130140F2FF3341F480119A4202DA00208E
:100C50000146704740F233439A42A2F2334202DC2B
:100C60005242FFF74DBDFFF73CBD000030B5041EFA
:100C700071F1000404DB4FF00044404264EB0101D9
:100C8000141E73F1000405DB1C464FF00043524272
:100C900063EB0403994208BF904230BD00207047C7
:100CA0001CB509480090094801900546009C06E0E3
:100CB000E06840F0010394E8070098471034AC4224
:100CC000F6D3FFF765FA000040470E0880470E088C
:100CD000202A06DBCB17203A41FA02F043EAE07300
:100CE00006E041FA02F3D040C2F1200291400843ED
:100CF0001946704700487047D8C6040810B5044626
:100D0000FFF7F8FF0068005D00F0010010BD000073
:100D10002DE9F34F8BB04FF0000801F10C000C46A9
:100D20004FF0010B46460DF1080A0190626901215E
:100D300001989047051E2DD0252D2CD0216A88477B
:100D4000C0B16269012101989047216A8847002853
:100D5000F7D1411E62690198904700E0761CA169B5
:100D60000B988847216A88470028F7D1E1690B98DA
:100D70008847DBE7A1690B9888470746A84201D15D
:100D8000761CD3E7E1690B9888477F1C02D1B8F144
:100D9000000F6FD046E1002762693D463946019851
:100DA00090472A2804D162690121019890470125C2
:100DB000DFF884926269012101989047A0F1300127
:100DC0000A290AD24F45E5DC07EB870100EB410712
:100DD000303FDFD445F01005ECE7E90601D46FF0B1
:100DE00000476C280AD04C2814D0682815D06A28EF
:100DF0000DD074281CD07A281AD01DE06269012118
:100E0000019890476C2802D045F0040514E045F0A5
:100E100002050DE045F020050AE062690121019814
:100E20009047682802D045F0080505E045F40065C4
:100E30006269012101989047C4E9015765283DD0B6
:100E400019DC58287AD00CDC452837D004DC25285A
:100E500026D0412831D131E046282FD047282CD147
:100E60002CE05B2877D0612828D063287CD06428C8
:100E700023D15AE0D0E06F2848D008DC66281DD086
:100E800067281BD0692821D06E2816D127E070284A
:100E900045D0732868D0752847D078280DD14DE00B
:100EA000A1690B988847054625283FF469AFE16999
:100EB0000B9888476D1C3FF46AAFB3E023466A463F
:100EC0006FF001000B9900F04DF99EE045F04000F5
:100ED0006060A80723464FF0000236D43EE0E807E2
:100EE0007FF447AF2068011D21600068290501D506
:100EF00006701BE7290701D5068017E7A90703D568
:100F0000F117C0E9006111E706600FE745F0400006
:100F10006060A80723464FF0080216D41EE040F692
:100F20000E0125EA0100606016E045F040006060B7
:100F3000A80723464FF00A0207D40FE045F040000F
:100F40006060A80708D5234610226FF001000B99B6
:100F5000AFF3008059E007E0234610226FF0010054
:100F60000B99FFF769FA50E04FF000094F464B46E6
:100F7000632802D05B2806D040E0E80601D40120B7
:100F8000A06001273AE062690121019890475E283C
:100F900005D14FF0010962694946019890472169DE
:100FA00039B900210A46534643F82120491C082933
:100FB000FADBB0B3216969B9C11700EBD1625311F3
:100FC0000AEB830122F01F02821A01200B68904075
:100FD00003430B6062690121019890475D28E8D1C5
:100FE000B9F1000F09D00020514651F82020D2431A
:100FF00041F82020401C0828F7DB02AB224600976E
:101000006FF001000B99FFF7BDFA00280CDA401CC5
:1010100008D1BBF1000F05D04FF0FF300DB0BDE897
:10102000F08FFFE74046F9E7E90701D108F1010831
:1010300006444FF0000B79E6CCCCCC0C2DE9FF4FE9
:10104000087883B09946FF2805D0491C2D2804D084
:101050000024002008E000200BE00124F9E700EB69
:10106000800003EB4000491C0B78FF2BF7D104B143
:10107000404200230293147819461D462D2C01D0BE
:101080002B2C04D1521C2D2C13D000240294AA46E0
:101090001478FF2C0FD00A25A3FB057801FB0581EE
:1010A0004FF0000C03FB0C11521CE3194AEB010139
:1010B000EEE70124EAE7814453EA010002D019F582
:1010C000C87F06DA03980021C0E9001107B0BDE827
:1010D000F08F0025AE4E2F46DFF8B882184600F09C
:1010E00009FACDE90001B9F1000002DAC9F1000402
:1010F00000E004460023A74A1AEB030B42EB045A14
:1011000012E0E00707D02A46334638464146FFF74B
:10111000B3FC074688462A46334610461946FFF771
:10112000ABFC05460E466410002CEAD1DDE9000157
:10113000B9F1000F5A46534606DAFFF70FFD3A465B
:101140004346FFF70BFD05E0FFF796FC3A464346A2
:10115000FFF792FC029A0AB181F00041039AC2E9BA
:101160000001B3E72DE9FF4F1F468DB0D7E90146D7
:101170004FF0FF382E2045464FF000090B90B9691B
:101180006D1C0E988847396A824688470028F6D138
:10119000BAF1FF3F0AD024F4D064002E11DDBAF179
:1011A0002B0F08D0BAF12D0F0BD102E0404611B041
:1011B0008DE744F48064B9696D1C0E9888478246B7
:1011C000761E6946600501D52D2000E02B208DF8A4
:1011D000000001F1010B0DF1200809E0B9696D1C57
:1011E0000E98884782460F9844F40074761E056076
:1011F000002E02DDBAF1300FF0D00B998A453ED1B6
:1012000044F0800406E00F99681CA9F1010944F438
:1012100000740860B9696D1C761E0E988847824676
:101220003028F0D02BE00B998A4505D1200603D455
:1012300044F08004761E18E050464AF053FD08B38F
:101240000DF11302761EAAF1300044F400749345A8
:1012500006D20BF8010B200607D5A9F1010003E027
:10126000200602D409F101008146A00502D50F999C
:10127000681C0860B9696D1C0E9888478246002E6C
:10128000D1DC53E0002E51DDBAF1650F02D0BAF186
:10129000450F4BD1A00549D5B9696D1C24F44074A4
:1012A000761E0E9888478246002E0CDD2B2804D02F
:1012B000BAF12D0F07D144F48074B9696D1C0E98F2
:1012C00088478246761EE00501D52D2100E02B21BE
:1012D00008F8011BCDF82C8021E00DF12901761EC4
:1012E00044F4007488450CD2AAF1300010F0FF00DD
:1012F00088F8000002D10B99884509D908F1010846
:1013000006E0E00501D5244801E042F20F70814675
:10131000B9696D1C0E98884782460F980560002EAB
:1013200004DD50464AF0DEFC0028D6D1F9690E985B
:101330008847FF208BF8000088F800000020069006
:1013400007904B466A4608A906A8FFF777FEA00556
:1013500002D46FF001002AE714F0240F0AD0E0074E
:1013600014D1DDE906123868031D3B600068C0E94E
:1013700000120BE0DDE90601FFF781F90146E00705
:1013800004D13868021D3A600068016028460EE703
:10139000000014400000F03FF1D8FFFF2DE9F05F9E
:1013A00082460078002715468B460AF10104B946AB
:1013B000302801D09DB113E014F8010B01277828E3
:1013C00003D0582801D045B10AE00DB1102D07D146
:1013D0000027102514F8010B02E0082500E00A257B
:1013E0000026B0460EE005FB080005FB06F10127CC
:1013F00001EB10461FFA80F8B6F5803F00D3B946DE
:1014000014F8010B2946FFF78BF90028EBDABBF142
:10141000000F05D00FB1641E00E05446CBF8004029
:10142000B9F1000F06D049F095FC02210160C81EF9
:10143000BDE8F09F48EA0640FAE710B5141E73F1C4
:10144000000408DA401C41F1000192185B411A4384
:1014500001D120F0010010BD2DE9F04D92469B46D0
:1014600011B1B1FA81F202E0B0FA80F22032904676
:10147000FFF737F904460F4640EA0A0041EA0B013C
:1014800053465A46084313D0114653EA010019D077
:10149000C8F140025046FFF733F905460E46504664
:1014A00059464246FFF71DF9084305D0012004E0E4
:1014B00020463946BDE8F08D0020054346EAE07637
:1014C0002C4337430A986305E40AA0EB0800002286
:1014D000FD0A44EA47540A3002D500200146E9E7F4
:1014E000010510196941DDE9084500196941BDE8A8
:1014F000F04DA2E70EB540F2334202920022CDE950
:1015000000221346FFF7A8FF03B000BD70B58C188A
:1015100010F8015B15F0070301D110F8013B2A1107
:1015200006D110F8012B03E010F8016B01F8016BF4
:101530005B1EF9D12B0705D40023521E0DD401F8F0
:10154000013BFAE710F8013BCB1A921C03E013F8B9
:10155000015B01F8015B521EF9D5A142D8D30020EE
:1015600070BD00002DE9F04F81B040F22404C2F2BA
:101570000004204608F03AFF40F23000C2F20000BA
:1015800008F034FF45F27400C1F200005421FEF768
:10159000A0FE4CF2106640F21000C2F20006C1F24A
:1015A000000046F2C16846F2956A3061C0F6030851
:1015B000C0F6030A2046192102226423C6E9068ADE
:1015C00008F04AFF08B1002457E03069B5690DF111
:1015D00003044FF0800B2421224601238DF803B031
:1015E0004FF00109A84705460A2047F045FC67214E
:1015F0003069B7698DF80310202122460123B847CE
:1016000005433069B7692321224601238DF803B0D1
:10161000B84705433069B7692121224601238DF877
:101620000390B84705437F213069B7698DF80310EF
:10163000302122460123B847054308213069B769A4
:101640008DF80310322122460123B8470543306943
:10165000B7693321224601238DF80390B84705432B
:1016600040213069B7698DF80310222122460123F9
:10167000B8472843B0FA80F0440942F2946540F23A
:101680001800C1F20005C1F20000A8604EF27D50C2
:101690004EF26551C0F60300C0F60301C5E904012E
:1016A00040F23000C2F2000044210222642308F01C
:1016B000D3FE40B905F108003DF07CF818B90220CE
:1016C00047F0DAFB023444F6B01540F21800C2F2DB
:1016D0000005C2F20000A86040F23000C2F2000033
:1016E000362102226423C5E9048A08F0B5FE30B928
:1016F00005F108003BF090F8002808BF043444F6D8
:10170000CC1540F20800C2F20005C1F200002861C9
:1017100040F23000C2F200006B2102226423C5E9CE
:10172000068A08F099FE30B905F1100013F05CFD4F
:10173000002808BF08344CF2C84540F21000C2F23D
:101740000005C2F20000E8604DF20A70C3F62340C3
:10175000E86140F23000C2F200004021022264231E
:10176000C5E9058A08F078FE30B905F10C0035F0BE
:10177000EDFD002808BF1034204601B0BDE8F08F11
:1017800010B540F22404C2F20004204608F02EFEF8
:1017900040F25040C1F200002146A02200F002F8C1
:1017A000013810BD70B5044600284FF000000FD07E
:1017B0000D46002908BF70BD2846164608F010FEE9
:1017C00038B1014620463246A56000F05DFE207328
:1017D00070BD002070BD0000F0B581B00646002944
:1017E0004FF0000000F0D0801546062AC0F0CC80F3
:1017F00040F25047C1F200070C46397B002900F047
:10180000C380B968002900F0BF80084608F000FED8
:101810004FF47A7C3846314622462B46CDF800C03C
:1018200000F04AFEB9680646084608F005FEA6B173
:10183000206845F2AA51C5F2AA5188420DD1AA1ECC
:1018400034F802C04FF6FF700AD04AF20101032DAE
:101850001FFA82FE07D1002664E0002001B0F0BD2F
:101860004FF6FF768BE02EF0010300274FF6FF7650
:1018700014F8020B0237704081EA5006C20714F8D0
:10188000015C08BF460881EA5600F20708BF7008ED
:1018900081EA5002C60708BF420881EA5200D60713
:1018A00008BF500881EA5002C60708BF420881EA13
:1018B0005200D60708BF500881EA5002C60708BF89
:1018C000420881EA5200D60708BF5008684081EA02
:1018D0005002C50708BF420881EA5200D50708BF79
:1018E000500881EA5002C50708BF420881EA520049
:1018F000D50708BF500881EA5002C50708BF420853
:1019000081EA5200D50708BF500881EA5002C50796
:1019100008BF420881EA5206D00708BF56089F4216
:101920003046A5D15FEACE7229D02278504081EAB4
:101930005002C30708BF420881EA5200D30708BF1C
:10194000500881EA5002C30708BF420881EA5200EA
:10195000D30708BF500881EA5002C30708BF4208F6
:1019600081EA5200D30708BF500881EA5002C3073A
:1019700008BF420881EA5206D00708BF5608ACEB00
:101980000600B0FA80F0400901B0F0BD2DE9F04743
:1019900082B0002900F0C7809246062AC0F0C380BA
:1019A00040F25049C1F20009804699F80C00002825
:1019B00000F0B980D9F80800002800F0B48045F2A2
:1019C000AA50C5F2AA500B46AAF1020E4FF6FE77B6
:1019D0004AF2010243F802091FFA8EFC0EEA0705DB
:1019E00000274FF6FF7600BF13F8020F0237704052
:1019F00082EA5006C40708BF460882EA5600F40788
:101A000008BF700882EA5004C60708BF440882EA8B
:101A10005400E60708BF600882EA5004C60708BF02
:101A2000440882EA5400E60708BF600882EA5004CE
:101A3000C60708BF4408E60782EA54005E7808BF7C
:101A40006008704082EA5004C60708BF440882EA72
:101A50005400E60708BF600882EA5004C60708BFC2
:101A6000440882EA5400E60708BF600882EA50048E
:101A7000C60708BF440882EA5400E60708BF6008AA
:101A800082EA5004C60708BF440882EA5406E00709
:101A900008BF6608AF42A7D15FEACC7029D098781A
:101AA000704082EA5003C70708BF430882EA530028
:101AB000DF0708BF580882EA5003C70708BF43087A
:101AC00082EA5300DF0708BF580882EA5003C707BD
:101AD00008BF430882EA5300DF0708BF580882EABC
:101AE0005003C70708BF430882EA5306D80708BF58
:101AF0005E0821F80E60D9F808000F4608F088FC4F
:101B00004FF47A76484641463A465346009600F0EE
:101B1000FBFCD9F808100446084608F08DFC204666
:101B200002B0BDE8F087002002B0BDE8F0870000F9
:101B3000A6B012F0EBFD48F0CBFD04469FEDBB8A4A
:101B40001D900020B2EE049AB6EE00AABEEE00BAD6
:101B50001DAF4FF0000B00264FF000094FF0000AB8
:101B6000A04602900590CDE900000390CDE9060063
:101B700004900CE00021079108F57A78B9465E469A
:101B8000AB461DAF069038461E2147F0DBF948F002
:101B90009FFD054612F09AFB11F0D6F8284610F08A
:101BA000B9FD281B642803D32846643401F084FF60
:101BB000A5EB0800B0F57A7FE5D311F0D7FA0FF066
:101BC000A5FE00F035F910F02BF910F06FF810F0C9
:101BD000C9F810F06FF908A810F01AF800F058F9D9
:101BE0009DF84800002778B19DF8490060B9029936
:101BF0009DF8430069B158454CD15D4678B9002045
:101C00000190059015E000BF5D46B34600200590A9
:101C100010E001210291834605460028EFD09DF88F
:101C20004000411E02293ED2002005900120019073
:101C3000002000909DF8380020B39DF8390008BBC3
:101C40009DED0D0AB5EE400AF1EE10FA1ADD9DED9C
:101C50000C0AB5EE400AF1EE10FA16DDB4EE480AB1
:101C6000F1EE10FAA8BFB0EE480ABDEEC00A5FEA76
:101C70000A6010EE101A27D02229C8BF4FF0000AC0
:101C800040E000BF002003903CE05FEA0A6039D1E9
:101C900000211DE0B04223D1B9F1020F80F0AA80EB
:101CA00009F101071EE00328B0D10198002800F0D7
:101CB0009D8000980028A9D10598022880F0AC806A
:101CC000013005900020B4E71D2901DD002003E06C
:101CD000039802280DD2013003904FF0000A11E062
:101CE000012706469DF843005D46B346002896D17D
:101CF00085E7032000220023039310F0B1FF4FF08B
:101D0000010A00BF9DF8280000284FF000003FF4B2
:101D100031AF9DF8291000297FF42CAF9DED080A02
:101D20009DED092A20EE090AB5EE400AF1EE10FAFF
:101D3000B0EE4B1AB5EE402AA146A8BFB0EE4A1A43
:101D40003C46F1EE10FA0BDDB4EE482A2F46F1EED8
:101D500010FABABFBDEEC22A12EE106A642601E084
:101D60002F46002630EE010ABDEEC00A1EA810EE76
:101D7000105A00F003FF049A9DF88410BDF9820008
:101D8000AAB10A38A8424FF0000029DB0539B14258
:101D90003D461ADB07990498012988BF002001F10C
:101DA0000101049088BF0021002007911BE0A84298
:101DB00003DD8E4201DA002003E00698022807D2F4
:101DC00001300021079104910CE0002107910AE005
:101DD00007202946324610F043FF012004900020DE
:101DE000002107913D4627464C46C5E6002001905C
:101DF00005901FE7B6FA86F040090021002210F096
:101E00002FFF9DF8480028B19DF84900B3460028EF
:101E10003FF468AF3546F8E6022064210022002333
:101E2000059310F01DFF012003E700BF0000C8422A
:101E30004EF20C4040F2B012C2F20000C1F20002B9
:101E4000017813780370117070470000FEE70000FE
:101E500044F28000C2F2000002F092B840F6900016
:101E6000C1F2000002F08CB8002808BF704780B5AE
:101E700044F6F021C1F2000109784CF27032C2F24E
:101E80000002942311FB03219422FEF7FBF980BD8D
:101E90002DE9F04FADF5397D44F6F020C1F2000098
:101EA00000780DF514790B9048469421FEF711FA4D
:101EB00040F2B010C1F2000000784EF2FC3AC2F2DB
:101EC000000A0AEBC0015AF830504F68280C40EA6B
:101ED0000748280E40EA07267FA85FFA88F44FEAF1
:101EE000172B0FF095FE0CA812F04AFC6FF01F00A4
:101EF00050FA86F010F11F0F30D3A8B2B0F5FA6F88
:101F00002CD36FF00C0050FA88F010F10D0F25D98A
:101F1000032C38BF013DA8B2810841F27B42F6B2E2
:101F20005143020940F63E235A430FF2184316FA72
:101F300085F553FA88F305EB900013F8013CA0EB0C
:101F4000514000EB124044F625111844C2F2924170
:101F5000A0FB0112A2EBC201451801E0F6B2002578
:101F6000FBB25FFA8BF70FF2E83248460821009780
:101F700048F0C2FE09F108000FF2E03218212346B2
:101F80000790009648F0B8FE0FF2DC3050F825308C
:101F900009F120000FF2EC321821069048F0ACFE57
:101FA0009DF8F81143F6B57743F6807809F13800CB
:101FB000C0F60E07C0F60E0801B39DF8F911DDE971
:101FC0003865002943460FF2C0324FF0180108BFB0
:101FD0003B46CDE9005648F08FFE9DF8F9112B9E47
:101FE00009F15000002943460FF2A8324FF01801C2
:101FF00008BF3B46009648F07FFE10E0002142F605
:102000002D528170028044F65050C2F63260A89082
:1020100042F23500C2F62D50A9908DF8A8129DF815
:102020000402002809F16800059025D09DED7F2A63
:10203000B2EE041A22EE013AB6EE001A33EE014A6D
:10204000BEEE005AB5EE402A9DED800A33EE053A09
:10205000F1EE10FAB8BFB0EE434ABDEEC42A12EE5C
:10206000101A00290C46B5EE400A48BF4C42F1EE6A
:1020700010FA07DA002313E00021817042F62D5197
:1020800001802AE09FEDC62AB4EE420AF1EE10FA72
:10209000CFBF642330EE010ABDEEC00A10EE103A45
:1020A0009DF805224CF6CD46CCF6CC46A4FB066541
:1020B000002A08BFB8460029BAA14FEAD50258BF86
:1020C000394602EB8207A4EB4707CDE90081029273
:1020D000B5A21821039748F00FFE12F07BFD804651
:1020E000ADF8D00212F094FD40F2B0118DF8D2029A
:1020F000C1F20001097840F2E4730AEBC1023AF838
:102100003110526899426FF006034FF0000153FA04
:1021100082F238BF01210C2A4FF0000238BF0122A1
:1021200041EA020A9DF805229DED830A9DF80432DA
:102130009DF814129DF8155209928DF8D8229DF839
:1021400024629DF825E29DF8F8419DF8F921B5EE4D
:10215000400A4FF0000BF1EE10FA8DF8D3A20A936B
:102160008DF8D7328DF8D9128DF8DA528DF8DB62FE
:102170008DF8DCE28DF8DD4208928DF8DE2211DB6D
:102180009FED871AB4EE410AF1EE10FA08DAB6EEC6
:10219000001A30EE010ABDEEC00A10EE10BA01E0DE
:1021A0004FF0640B4CF27033C2F200034FF00009A1
:1021B0008DF8D4B2D9B1D5B9CEB1BEF1000F16D1D8
:1021C0009DF81C72032F02D14FF001090FE09DF81A
:1021D0001E725FFA8BF2002FA4464FF0000418BF66
:1021E0000127622A88BF012407EA040964460B9A82
:1021F000942712FB07374FF0000C8DF8D69289B167
:1022000085B97EB1BEF1000F0CD1B9F1000F09D133
:10221000BBF1620F06D89DF81C22013A022A38BF92
:102220004FF0010CB9F1000F8DF8D5C21CBF4FF073
:10223000640B8DF8D4B2B7F8802090455CD197F844
:102240008220904258D197F88300504554D197F896
:102250008400834550D197F8850060454CD197F8AC
:102260008600484548D197F887000A9A824243D1B0
:1022700097F88800099A82423ED197F889008142F6
:102280003AD197F88A00854236D197F88B0086427A
:1022900032D197F88C0086452ED197F88D00844274
:1022A0002AD197F88E000899814225D194AC204616
:1022B0003946FEF748F8F8B9079807F10801FEF724
:1022C00042F8C8B9069807F12001FEF73CF898B922
:1022D00004F1380007F13801FEF735F860B904F170
:1022E000500007F15001FEF72EF828B9059807F1C4
:1022F0006801FEF728F8F8B14CF29C41C2F20001E7
:1023000008680130086044F6F025B890C1F2000575
:102310002878012121EA00044CF270319420C2F2A5
:10232000000114FB001094A99422FDF7ABFF2C7060
:102330000DF5397DBDE8F08F4CF29C40C2F20000F3
:102340000068E0E70003020500030501040602043B
:10235000253032753A253032750000002575E69C2F
:10236000882575E697A50000A83F0E08853F0E0852
:10237000933F0E088C3F0E08A13F0E089A3F0E08AF
:10238000AF3F0E0825730000257325642F2564C216
:10239000B04300002573504D322E352025640000D7
:1023A0000000C8422D000000256425252025732546
:1023B0007325642E256443002DE9F04387B04EF267
:1023C000FC374EF20C4940F2B01840F23C01C2F228
:1023D00000070024C2F20009C1F200080120C2F285
:1023E0000001C7E90044C7E9024489F8004088F8C1
:1023F000000008704CF27030C2F200004FF494718B
:10240000FDF767FF44F6F020C1F2000004704CF2C3
:102410009C40C2F200000460CDE90544CDE90344CC
:10242000CDE9014440F6A81499F80060C1F2000417
:1024300002A92046002207EBC60504F0ADFB01A966
:102440002046002204F07CFB9DF80700BDF8051033
:1024500000F5FA6027F8360069809DF80800BDF89D
:1024600009102871A5F8051099F8000098F80010D7
:1024700089F8001088F80000FFF70AFD07B0BDE8F2
:10248000F083000070470000034600284FF0000072
:1024900018BF002900D1704780B519601A7108462D
:1024A00011460222642302F0CFF8B0FA80F040090E
:1024B000BDE88040704700002DE9F04184B004463B
:1024C0004079DDF828801E4615460F4630B100BF22
:1024D000012001F06BFE60790028F9D1012220680B
:1024E00021796271B2B2CDE90052BAB20223CDF8BD
:1024F000088002F07DFBB0FA80F000214009617194
:1025000004B0BDE8F08100002DE9F04F83B08346B0
:1025100040791D4616460F4638B100BF012001F034
:1025200045FE9BF805000028F8D1DDF83090012029
:102530008BF8050001F0CEFF80464FF0000A00BF87
:1025400007F03F00C0F140029542DBF800009BF825
:10255000041038BF2A4694B2BAB20223CDE900640F
:10256000CDF8089002F0C2FC60B90A2001F01EFE0E
:102570002D1B09D02744264401F0ACFFA0EB080036
:102580004845DDD3002000E001208BF805A003B012
:10259000BDE8F08F84B012F0B9F840F2C01643F6EF
:1025A0006057C1F20006C2F200070DF10A0802AD41
:1025B0000DF107090DF1060A0DF1040B06E044F0D8
:1025C000D7FC601E18BF012030F042FF30F002FF40
:1025D00090B13068B0B349460022002347F068FB51
:1025E00001282FD19DF8074030F0F4FE012C23D0B4
:1025F00040BB44F0BDFC20E0386850B159464FF074
:10260000FF32002347F054FB012802D1584630F036
:10261000B7FE30680028D9D051460022002347F089
:1026200047FB0128D2D19DF8064030F0D3FE012CA3
:102630003CD00028CAD1C2E720B1601E18BF0120DB
:1026400030F006FF30F0C6FE0028BFD0386870B109
:10265000386829460022002347F02AFB012806D1CA
:10266000284630F08DFE30F0B5FE0028F0D130F075
:10267000B1FE0028AAD044F0A5FB60B945F044FAA9
:1026800048B945F0D9FD30B9404610F033FB10B1E0
:10269000404645F0E3FF30F0A7FE30F09BFE0028F7
:1026A0003FF494AF052046F0E7FB8FE700283FF4A6
:1026B0008DAF86E740F2C010C1F20000006800282C
:1026C00014BF0021704747F03DBC000080B582B0C8
:1026D00040F2C011C1F200010A688DF8070062B132
:1026E0000DF1070110460022022347F06DFC01386E
:1026F000B0FA80F0400902B080BD002002B080BD79
:10270000EFF3108072B600BFFEE7000000285CD037
:10271000B0F90010B0F9022000EE101A9FED4C1A2B
:10272000B8EEC00AB0F9040020EE012A00EE102A2B
:10273000B8EEC00A20EE013A00EE100A40F2C810CE
:10274000B8EEC00AC1F2000020EE014A90ED001A76
:102750009FED400A9FED405A22EE002A21EE051A15
:1027600031EE021A80ED001A43F66850C2F2000002
:1027700090ED002A23EE003A22EE052A32EE032ADB
:1027800040F2CC1280ED002AC1F2000243F66C50F8
:1027900092ED003AC2F20000018824EE004A23EED6
:1027A000053A33EE043A132982ED003A0FD801318D
:1027B000018043F66451C2F200010020087040F22B
:1027C000C411C1F20001087070470020704722EE6A
:1027D000022A21EE011A31EE021A23EE032A32EE0A
:1027E000011AB1EEC11AB4EE401AF1EE10FA27DB6D
:1027F000B7EE080AB4EE401AF1EE10FA20DC9FEDB5
:10280000170AB4EE401AF1EE10FAD2DA43F6645128
:10281000C2F2000108780130C2B20870052A4FF0F8
:102820000000D3D340F2C412C1F200021378002B8F
:1028300018BF704701201070002008700D207047ED
:1028400043F66451C2F2000100200870704700BFD7
:102850006F12833A9A99993E3333333FCDCC4C3E35
:10286000032814D880B511A3844653F820004FEAFA
:10287000CC035FFA83FE11A333F81CC040F201437E
:10288000C0F2044323FA0EF3BDE8804006E040F2B4
:10289000A8004FF05F0C0423C1F20000002918BF0C
:1028A0000B70002A18BFA2F800C07047C8000010C3
:1028B000A8000010B800001058000020B4005F000D
:1028C000690055002DE9F04385B0C0F164014FF473
:1028D0004862514348F21F52C5F2EB12A1FB0212AB
:1028E00040F20048C4F6000800284FEA521560D0B4
:1028F00044F28010C2F200000068A9B2416346F0C1
:1029000055F94EF2CC30C2F20000C58346F072F9A0
:102910004EF24535C2F200052878002840F09B8031
:1029200044F28010C2F200000021002406F0D0F82A
:10293000002800F08E8040464FF40071012204947C
:102940004FF40074012601F0BFFD44F68C75C1F20E
:102950000005287848B90020CDE9020669464046BE
:10296000CDE9004601F0BEFC2E70002640464FF433
:102970000071012204964FF40074012701F0A4FDB8
:10298000287840B969464046CDE90047CDE902675D
:1029900001F0A8FC2F7008F580600821002201F0EA
:1029A00093FD4CF21C10C2F20000067005B0BDE8A9
:1029B000F083002640464FF40071012204964FF444
:1029C0000079012701F080FD44F68C74C1F2000407
:1029D000207840B969464046CDE90097CDE90267C5
:1029E00001F080FC27704EF24536C2F200063078C6
:1029F00001280AD144F28010C2F200000021002414
:102A000006F034F9002808BF347044F28010C2F296
:102A100000000068456346F0C9F84EF2CC30C2F2BF
:102A20000000C58346F0E6F84CF21C14C2F2000424
:102A30002078012804D1052046F01EFA00202070DD
:102A400008F580600821002201F03EFD05B0BDE8D8
:102A5000F0830120287044F68C75C1F200052878B7
:102A600001280FD14FF40070009002200190012046
:102A700003900E200024049069464046029401F021
:102A800031FC2C7008F5806008210122012401F03E
:102A90001BFD4CF21C10C2F20000047005B0BDE832
:102AA000F083000044F6C421C2F2000108607047C0
:102AB00010B546F07BF84EF2CC30C2F200004178FF
:102AC0000024002918BF817041F61801C1F20001ED
:102AD0000C6044F6A811C2F20001048044600C604E
:102AE00044F6AC11048244614EF2F430C2F20001AB
:102AF000C2F200000C70046045F26C10C1F20000DC
:102B0000046045F26810C1F20000046045F26410F0
:102B1000C1F2000004704EF2F830C2F20000016809
:102B20000131016044F61470C1F200000DF03EFE68
:102B300044F68870C1F2000004604EF24430C2F2E4
:102B40000000047046F056F80020BDE81040FFF782
:102B5000B9BE000003288EBF02A004A151F82000D6
:102B6000704700BF556E6B6E6F776E00BA3F0E08F0
:102B7000C63F0E08BE3F0E08CD3F0E08002808BF16
:102B80007047B0B5044646F011F84EF2CC30C2F2B0
:102B90000000D0E900CED0E90231D0E90452C4E906
:102BA0000231C4E90452C4E900CED0E90601C4E907
:102BB0000601BDE8B04046F01DB800002DE9F04721
:102BC00086B0054647F084FD002D3ED0814645F095
:102BD000EDFF4EF2CC3AC2F2000A9AF802009AF8DF
:102BE0000C404FF00008031FADF810809AF8031056
:102BF0009AF8082013F1030F38BF01208DF8144014
:102C00002C788DF80E00BAF80A309AF80D70BAF8E0
:102C10000E00082C8DF80F108DF81020ADF8123032
:102C20008DF81570ADF8160000F2BC80DFE804F0F6
:102C3000056B1F2910A5AC33EE00688849460028B3
:102C400018BF012000F07AFEACE006B0BDE8F087C6
:102C50006888B0F5B47F28BF4FF4B470B42898BF2B
:102C6000B420834200F09E80AAF80A0094E06888AD
:102C7000642828BF6420814200F094808AF8030011
:102C80008AE06888642828BF6420824200F08A8035
:102C90008AF8080080E06A88B2F5F07F114628BF04
:102CA0004FF4F0713C2998BF3C21002A08BF11461F
:102CB000884277D0002A18BF01229AF80000AAF8AB
:102CC0000E100028034618BF01231A4016464EF680
:102CD0006023C1EB011718BF01FB0396002818BF42
:102CE000084644F6A811C2F200010E6044F6AC1189
:102CF000C2F20001002A0A7018BFBA00AAF8100038
:102D0000CAF814204EE0A97803294BD8002900F016
:102D1000D28001238AF801108AF8021044F68871E3
:102D20009AF800208AF80030C1F2000100230B60FD
:102D300041F6180309F59671C1F2000319608ABBC8
:102D4000002801464EF66022074618BF01210028E0
:102D500018BF07FB029744F6A812C2F20002C0EBAC
:102D60000013176044F6AC129B00C2F2000211700F
:102D7000AAF81000CAF8143014E06888642828BF44
:102D800064208AF80C000DE068883C2828BF3C20AD
:102D9000874207D08AF80D0044F68870C1F200001F
:102DA000002101609AF802009AF80310031FADF8A1
:102DB00006809AF8082013F1030F38BF01208DF820
:102DC00004008DF80510BAF80A00DAF80C108DF836
:102DD0000620ADF80800CDF80A100DF10E0001A98B
:102DE0000A22FDF7BEFA60B144F6D470C1F20000C9
:102DF0000121017044F6D07109F57A70C1F2000129
:102E0000086006B0BDE8F04745F0F4BE002542F684
:102E10000150CAF80850CAE90655CAE90455CAE97A
:102E20000055AAF8020050208AF808004FF48C7070
:102E3000AAF80A0041F24120C0F2F000CAF80C00E2
:102E400041F61800C1F20000056044F6A810C2F275
:102E50000000056044F6AC10C2F20000057044F6B4
:102E60001470C1F200000DF0A1FC44F68870C1F2AC
:102E7000000005604EF24430C2F2000005704EF2D0
:102E8000F430C2F20000056045F26C10C1F200009F
:102E9000056045F26810C1F20000056045F264105B
:102EA000C1F2000005704EF2F830C2F20000016875
:102EB0000131016098E79AF801000025002818BF49
:102EC0008AF802004EF2F430C2F20000AAF8005074
:102ED000CAF80450056045F26C10C1F200000560AC
:102EE00045F26810C1F20000056045F26410C1F2BD
:102EF000000005704EF2F830C2F2000001680131A6
:102F0000016041F61800C1F20000056044F6A81007
:102F1000C2F20000056044F6AC10C2F20000057079
:102F200044F61470C1F20000AAF81050CAF8145008
:102F30000DF03CFC44F68870C1F2000005604EF2D2
:102F40004430C2F2000005702CE700002DE9F04F7C
:102F5000C5B04EF2CC34C2F20004002542F6015056
:102F6000A560C4E90655C4E90455C4E9005560806C
:102F7000502020724FF48C70608141F24120C0F2E9
:102F8000F000E06041F61800C1F20000056044F670
:102F9000A810C2F20000056044F6AC10C2F20000B6
:102FA000057044F61470C1F200000DF0FFFB44F60A
:102FB0008870C1F2000005604EF24430C2F2000099
:102FC00005704EF2F430C2F20000056045F26C105C
:102FD000C1F20000056045F26810C1F20000056012
:102FE0004EF2F830C2F20000056045F26410C1F202
:102FF0000000057045F27010C1F2000005604EF24D
:10300000F030C2F2000005604EF24530C2F200001E
:10301000057044F68C70C1F2000005704CF21C1073
:10302000C2F2000044F6D47944F6D0780570C1F2BB
:103030000009C1F2000805A94FF480604FF48072C6
:1030400089F80050C8F80050FEF7C6FB00287ED073
:103050009DF8180001287AD19DF819209DF81AA032
:103060009DF81B109DF81EE0BDF81C509DF81F70C8
:10307000BDF82000161F4FF0000C16F1030FADF83D
:103080000CC08DF80A208DF80BA08DF80C10ADF84F
:103090000E508DF810E08DF81170ADF81200A4F804
:1030A00000C038BF0122BAF1640FA2704FF064066D
:1030B00028BFB246642984F803A028BF3146B5F57D
:1030C000B47F217228BF4FF4B475B42D98BFB425D6
:1030D000BEF1640F658138BF76463C2F03462673E8
:1030E0004FF03C0E28BF77466773B0F5F07F28BFDE
:1030F0004FF4F0733C2B98BF7346002808BF03467B
:10310000101FE381ADF802C010F1030F38BF012298
:103110008DF800208DF802100DF10A0069460A2290
:103120008DF801A0ADF804508DF806608DF8077099
:10313000ADF80830FDF715F9E0B347F0C9FA012101
:1031400000F57A7089F80010C8F8000032E0A6781F
:10315000E77894F808B0301FD4F80A50B4F80E801D
:1031600005AC10F1030F20464FF4807138BF0126E3
:10317000FDF7AFF84FF0010A4FF4806021464FF49D
:1031800080728DF818A08DF819608DF81A708DF87E
:103190001BB00795ADF82080FEF7F8FB50B947F05B
:1031A00097FA44F6D07100F57A70C1F2000189F8FF
:1031B00000A0086044F2CC10C2F2000001680022B6
:1031C0004A62002105F084F80020FFF77BFB45B040
:1031D000BDE8F08F2DE9F04FC5B045F0E7FC4EF2A9
:1031E000CC3744F6D470C2F20007C1F20000BD78BB
:1031F00004780020ADF80C00281F97F803B03E7A41
:10320000397B10F1030F38BF0125B7F80A8097F812
:103210000D90B7F80EA08DF80A508DF80BB08DF810
:103220000C60ADF80E8001918DF810108DF81190A2
:10323000ADF812A045F0DEFC012C4FF0010447D19F
:1032400005A84FF48071FDF744F8019805A98DF8A1
:103250001E004FF480604FF480728DF818408DF896
:1032600019508DF81AB08DF81B60ADF81C808DF8E0
:103270001F90ADF820A0FEF789FB4FF0000438B393
:1032800045F094FCB878F978031FADF816403A7A07
:1032900013F1030F38BF01208DF814008DF81510BD
:1032A0007889F9688DF81620ADF81800CDF81A1055
:1032B00005A80DF10A010A22FDF753F828B944F6D2
:1032C000D4710020C1F20001087045F093FC012484
:1032D000204645B0BDE8F08F2DE9F04FC1B004465F
:1032E00045F064FC44F6D47AC1F2000A9AF8000072
:1032F000012843D144F6D070C1F200000768E01BFA
:10330000B0F1FF3F3ADD4EF2CC30C2F200008578DA
:10331000C67890F808B0291FD0F80A80B0F80E904F
:1033200011F1030F38BF012545F064FC01A84FF4EB
:103330008071FCF7CEFF01208DF808004FF480600B
:1033400001A94FF480728DF809508DF80A608DF84C
:103350000BB0CDF80C80ADF81090FEF717FB0546CA
:1033600045F024FC7DB144F6D070C1F20000006845
:10337000B84204BF00208AF800000BE041B0BDE86D
:10338000F04F45F037BC44F6D07104F57A70C1F2C5
:103390000001086045F02EFC41B0BDE8F08F000050
:1033A0002DE9F04F81B02DED068B9EB0834609A824
:1033B0000EF02EFC9DF82C809DED093A9DED0A1A29
:1033C000BBEE042A9FEDF10AB8F1000F04BFB0EE86
:1033D000403AB0EE401AB4EE423AF1EE10FA0ADB8F
:1033E0009FEDEB4AB0EE432AB4EE443AF1EE10FA08
:1033F000C8BFB0EE442AB5EE401AF1EE10FA0ADB6F
:103400009FEDE43AB0EE410AB4EE431AF1EE10FA41
:10341000C8BFB0EE430AB2EE04AAB6EE009A22EE9E
:103420000A1A30EE090ABDEEC11ABDEEC00A9DF8B7
:103430002D6011EE104A10EE109A45F0B7FB4EF2D7
:10344000CC35C2F2000544F6AC1095F800A0C2F2EB
:1034500000000178BAF1000F07942C8385F81A90C8
:1034600085F81B802E7718BF002908D044F6A812D3
:10347000C2F200021268BBEB020300F19E80002240
:103480002A826A6141F618070029C1F200074BD071
:1034900044F6A811C2F200010A68BBEB020243D451
:1034A0006A780024002A18BFAA704EF2F432C2F2E1
:1034B00000022C806C60146045F26C12C1F20002B4
:1034C000146045F26812C1F20002146045F2641201
:1034D000C1F2000214704EF2F832C2F20002136818
:1034E00001331360047044F61470C1F200003C60B4
:1034F0000C602C826C610DF059F94EF2CC3544F61B
:103500008870C2F20005C1F2000004604EF244303F
:1035100095F800A095F81A9095F81B802E7F298BBE
:10352000C2F2000007910470B5F90A0003960290F8
:10353000287BCDE905980190687BD94604903868CE
:103540006C7895F803806E7995F808B0089045F08E
:1035500051FBBAF1000F25D0601E03282BD20BFBC4
:1035600008F0800841F27B414843400C01063BD003
:10357000032C07D10699002900F0FB80039900294C
:1035800040F0F78044F68877C1F20007396891B3BC
:10359000A9EB010163292ED84EF24430C2F200009B
:1035A000007801E145F002FB4EF2CC310025002607
:1035B000C2F2000134E10020F6E0A2EB0B0244F677
:1035C000D35302F2E732C1F26203A2FB03233B2290
:1035D00044F2454702EB9312C0F24447A2FB07278F
:1035E0009A096A612F824DE744F68871C1F20001A1
:1035F00000200860C3E044F614715FFA80F8C1F25D
:10360000000109A84822FCF73DFE02999DED192A08
:10361000A1F1280000EE100A01F1280001EE100AC5
:10362000B8EEC00AB8EEC11A80EE0A0A81EE0A1A94
:1036300009A98DED090A8DED0A1A00EE108A9FED99
:10364000801AB8EE408A28EE010A9FED7E1AB4EE89
:10365000420A28EE011A8DED0B0AF1EE10FA8DEDFB
:103660000C1ABCBF8DED0B2AB0EE420AB4EE401A24
:10367000F1EE10FA059DBCBF8DED0C0AB0EE401ABC
:103680009DED1A0A44F61478B4EE401AF1EE10FAE1
:10369000C8BF8DED0C0A0498B3EE021A00EE100AB2
:1036A000B8EE400A80EE010AC1F20008404620EE62
:1036B0000A1A8DED0D1AB1EE001A20EE011A8DEDE9
:1036C0000F1AB1EE041A20EE011A8DED111AB2EEA6
:1036D0000E1A20EE011A8DED141AB3EE0E1A20EE1A
:1036E000010A8DED150A0DF057F8A01EB0FA80F012
:1036F000400941004046B0EE480A032C08BF0121B2
:103700000DF0E4FA079800B200EE100AB8EEC00A15
:1037100080EE0A0A40460DF0A5F8032C15D1019859
:10372000854212D9281AC0B201EE100AB8EE411A29
:1037300021EE091AB3EE042AB4EE421AF1EE10FAA1
:10374000C8BFB0EE421A31EE000AB5EE400AF1EE03
:1037500010FA21DD9FED391AB4EE410AF1EE10FAAC
:10376000AFBF642030EE090ABDEEC00A10EE100AA9
:1037700013E044F68871C1F20001C1F800904EF2E6
:103780004431C2F2000108700EE000BF00000000EA
:103790000000A0420000C84200204EF24431C2F2B4
:1037A00000010870C7F80090C2B20BFB02F204F0EF
:1037B000FD01920841F27B4305465A43012918BF97
:1037C000550C022C08BF0546089878B1A9EB0000FB
:1037D000B0F1FF3F0ADC280608D0EDB2232D4FF0F0
:1037E000230098BF0546232E98BF0646E8B28642BE
:1037F00004D20336864288BF2E4606E005D904303F
:10380000B042284638BF301F064645F0CFF94EF289
:10381000CC31C2F200010878002804BF05460646F4
:103820000D714E7145F0E6F9F0B2FFF74BF81EB09E
:10383000BDEC068B01B0BDE8F08F00BF0000C842B0
:103840003333333F9A99B93F80B582B0ADF8040065
:1038500044F6C420C2F2000003680A460721002093
:103860008DF802108DF806004BB10DF102011846DB
:10387000002346F0A9FB0138B0FA80F0400902B0FD
:1038800080BD000080B582B00A4603218DF8021089
:10389000642828BF6420ADF8040044F6C420C2F2B6
:1038A0000000036800208DF806004BB10DF1020105
:1038B0001846002346F088FB0138B0FA80F0400932
:1038C00002B080BD80B582B0ADF8040044F6C420DB
:1038D000C2F2000003680A46012100208DF80210A0
:1038E0008DF806004BB10DF102011846002346F099
:1038F0006BFB0138B0FA80F0400902B080BD0000D7
:1039000080B582B00A460146ADF8041044F6C421E1
:10391000C2F200010B6800208DF802008DF806004D
:103920004BB10DF102011846002346F04DFB013862
:10393000B0FA80F0400902B080BD000010B5002848
:103940004EF2CC30C2F2000036D043780278012427
:1039500004702BB98378012B88BF1C462346447022
:10396000837044F68873C1F2000300241C6041F6A2
:10397000180401F59673C1F20004002A236018BFF1
:1039800010BDC2894EF6602C002A134618BF0123D1
:10399000C2EB0214002A028218BF02FB0C1244F68A
:1039A000A811C2F200010A6044F6AC11A400C2F2F0
:1039B00000010B70446110BD41780024002918BF3C
:1039C00081704EF2F431C2F20001048044600C6058
:1039D00045F26C11C1F200010C6045F26811C1F2B0
:1039E00000010C6045F26411C1F200010C704EF24E
:1039F000F831C2F200010A6801320A6041F618018A
:103A0000C1F200010C6044F6A811C2F200010C6082
:103A100044F6AC110482446144F61470C2F2000111
:103A2000C1F200000C700CF0C1FE44F68870C1F2C7
:103A3000000004604EF24430C2F20000047010BD79
:103A400080B582B00346ADF8043044F6C423C2F218
:103A500000031B6800208DF802008DF806104BB1A2
:103A60000DF102011846002346F0AEFA0138B0FA13
:103A700080F0400902B080BD80B582B00A460221C4
:103A80008DF80210642828BF6420ADF8040044F6C5
:103A9000C420C2F20000036800208DF806004BB17C
:103AA0000DF102011846002346F08EFA0138B0FAF3
:103AB00080F0400902B080BD2DE9F04F81B004468E
:103AC00045F074F845F26C1B4EF2F830C1F2000B71
:103AD000C2F20000DBF80090D0F800A045F26810B8
:103AE000C1F20000056845F264174EF2CC30C1F215
:103AF0000007C2F200003E7890F8008045F07AF8A6
:103B0000B8F1000F04D0F6B1601BB0F57A7F1ADB74
:103B100045F04CF84EF2CC300024C2F200003C706C
:103B2000CBF80040C48045F065F84EF2F030C2F2A8
:103B30000000046045F27010C1F20000C0F800A05F
:103B400001B0BDE8F08F002E18BFB9F1000F0CD105
:103B50004EF2F030C2F200000024046045F2701012
:103B6000C1F20000C0F800A034E045F27010C1F2CC
:103B700000004EF2F0310268C2F200010F68924577
:103B800002D17FB9002425E03FB102220323E7FBE5
:103B900063924FEA990343EA82794F46C1F8009055
:103BA000C0F800A048F20070C0F29330C0194FF086
:103BB00000014FEA47024FEAD77341F10001FCF7D9
:103BC000FFFA04464FF6FF70844228BF04460029DE
:103BD00018BF044644F0EAFF4EF2CC30C2F20000B7
:103BE000C48001B0BDE8F04F45F004B892B010F0C9
:103BF0008DFD6846FEF7C2FF9DF8007043F67458CD
:103C0000C2F200080DF122040DF1280903E000BF03
:103C10003046FFF761FBD8F800002146322204E06D
:103C20003746D8F8000021460022002346F040F82D
:103C3000012817D12046FEF7C1FF9DF826504846BF
:103C4000FEF79CFF9DF82860BE42EAD0E807E7D166
:103C5000082000210022002E08BF09200FF000F8E4
:103C6000DEE700BF46F034FD0646FFF799FB484605
:103C7000FEF784FF9DF82850BD42C9D008200021DE
:103C80000022002D08BF09200EF0EAFF2F46BFE7F3
:103C900070470000F0B581B00446407901284FF02C
:103CA000020000F08E8015460122627120710868C2
:103CB000042819D10F4600F00DFC2168496B064617
:103CC000A5B1B1F1FF3F04DD442612E0406B0028AE
:103CD000FAD500F0FFFB811B20680229F6D3416B67
:103CE000B1F1FF3FF2DC3BE020681DE008042ED478
:103CF0004026012000F05AFABA69206839468251FC
:103D0000826C05F0100340F2FF379F40BA43D1E9BF
:103D100007769F403A438264C26CFF279F40BA43B4
:103D200006FA03F31A43C2640A69012A20D1836B9D
:103D300005F010021F274E699740BB4306FA02F7B1
:103D40003B43836316E000BF406B0004D0D500F016
:103D5000C1FB811B20680229F6D3416B0904F3D50E
:103D6000206940F0080020610320207101B0F0BDFF
:103D700005F01002C36B07279740BB43D1E90076DB
:103D8000D1E902512F43394391401943C1634FF4A4
:103D900080410368914023EA01010160016840F617
:103DA000FC739340994306FA02F319430160C02162
:103DB0000368914023EA0101016001202071002085
:103DC000607101B0F0BD00007047000010B50168DF
:103DD0000A68920444BF4A6B5FEA824217D40A68B9
:103DE000920046BF4A6B5FEA820210BD0422027154
:103DF000026942F0020202614FF000524A630A680F
:103E000022F080520A60BDE81040FFF741BF042253
:103E100002710269044642F0010202614FF400524D
:103E20004A630A6822F480520A60FFF7CDFF2168D6
:103E30002046D4E7002804BF01207047017941B92A
:103E400010B500214171044600F00CF82046BDE891
:103E50001040022101710021012201610271084616
:103E60007047000080B586B0006847F20042C4F297
:103E7000000200219042CDE90411CDE90211019127
:103E800001D006B080BD41F24C00C4F20200C2680D
:103E900042F00052C260C26802F000520092009AE2
:103EA000026842F001020260006800F00100009028
:103EB0000098102001900320CDE9020101A94FF0E4
:103EC000904000F00FFA36200F21002201F0CCFBC9
:103ED000362001F0B7FB06B080BD0000002804BF0B
:103EE0000120704790F82510022915D10168D0E90A
:103EF00010C30A6822F001020A600A6822F00E026A
:103F00000A6003F01C01012202FA01F1CCF804104E
:103F1000002180F8252002E00421C1630121002254
:103F200080F824200846704790F82510022921D1F6
:103F300080B50268D0F838C0D0E910E1136801F00C
:103F40001C0123F0010313601368BCF1000F23F080
:103F50000E0313604FF0010202FA01F1CEF80410D3
:103F60004FF0000180F8252080F8241018BFE047AA
:103F7000002080BD0421C16301207047C06B7047E1
:103F800070B5D0E910C20168DCF8004002F01C03F3
:103F900004220E689A40224218BF16F004051ED172
:103FA000022202FA03FE1EEA040F18BF16F00202F4
:103FB00021D124FA03F212071CD516F0080208BF1B
:103FC00070BD0A6822F00E020A60012101FA03F2B4
:103FD000CCF80420C16380F82510416B21E00B6808
:103FE0009B0603D40B6823F004030B60CCF8042079
:103FF000016BD9B970BD0A68920606D40A6822F02E
:104000000A020A60012280F825200422C4F202027A
:1040100002F17C03994288BF02F58062C2F800E099
:10402000C16A0022002980F82420E3D0BDE8704056
:1040300008470000002804BF012070472DE9F04F19
:1040400040F2000CC4F2020C02684FF6F8310CF595
:10405000816ECBF6FD71724538BF01F580614CF67B
:10406000CD431144CCF6CC43A1FB03136FF0030105
:104070000CF5806701EA930A4FF00203D0E902B819
:10408000D0F810903CBF0027C4F20207C0E9107AB4
:1040900080F82530136847F6F077BB431360D0E90A
:1040A000053748EA0904D0E9075623433B43116822
:1040B0002B433343194341EA0B01BBF5804F116099
:1040C00015D04FF495640AF01C010F23724538BFD8
:1040D000A8245CF804208B409A434CF804204268E2
:1040E0005CF8043002FA01F119434CF80410002185
:1040F0000122C16380F8252080F824100020BDE84B
:10410000F08F000090F824C0BCF1010F04BF022022
:104110007047F0B54FF0010E80F824E090F825C00C
:10412000BCF1010F29D14FF0020C80F825C04FF0EF
:10413000000CC0F83CC0D0F800C08468056B066C69
:10414000DCF80070102C27F00107CCF80070406CF0
:1041500000F01C000EFA00F070600846CCF8043045
:1041600004BF10460A46CCF80800CCF80C20DCF856
:1041700000004DB140F00E000EE08021C16300212F
:1041800080F824100120F0BD20F00400CCF80000DD
:10419000DCF8000040F00A00CCF80000DCF8000079
:1041A00040F00100CCF800000020F0BDB0B504469E
:1041B00000F090F9054640F2B110C1F2000000781D
:1041C000611C18BF044400BF00F084F9401BA042EA
:1041D000FAD3B0BD002908BF70472DE9F04F81B078
:1041E00041F6000200F13847C4F6000207234FEA07
:1041F000B726904208BF062300F1200E062E38BFD6
:104200004FEAB72300240027002500932AE000BFCF
:1042100002680323A3401A4302606FF0030202EA1C
:10422000550607F01C0C5EF806800F2202FA0CF20D
:1042300028EA02024EF8062082689A4382604268A9
:1042400022EA0A024260C2689A43C260C26A22EA53
:104250000A02C262013531FA05F207F1040704F1DE
:1042600002043BD0012202FA05FA1AEA0108F1D051
:1042700040F20042C4F20102A2F57E7C25F0030365
:1042800007F00C0B0F225CF8033002FA0BF9009ACE
:1042900003EA090302FA0BF29342B9D140F2004655
:1042A000C4F20106326840F20C4322EA080232608E
:1042B0007268C4F2010322EA080272601A6822EAF4
:1042C00008021A60B268AB0822EA0802B2605CF821
:1042D000232022EA09024CF8232099E701B0BDE827
:1042E000F04F70472DE9F04F83B00E68002E00F0BC
:1042F000E18000F1200241F60004009200F138470D
:10430000C4F6000407224FEAB725A04208BF0622E0
:10431000062D38BF4FEAB722002500274FF00008CE
:1043200001920AE00E6808F1010836FA08F207F176
:10433000020705F1040500F0BD80012202FA08F42D
:1043400016EA0409EED0D1F804A00AF0030CACF18F
:104350000106022E16D286680322CB68BA40964325
:10436000BB403343836043686FEA020E23EA0402D2
:10437000CAF3001303FA08F34FEA480B1A434260EA
:1043800019E000BFBCF1030F0FD1C66A4FF0030C58
:10439000A643CAF3C00404FA08F42643C6620CFA22
:1043A00007F66FEA060EBB4627E0032202FA07F67D
:1043B0006FEA060EBB46C2688B6802EA0E0203FA79
:1043C0000BF31A43BCF1020FC26016D16FF0030267
:1043D000009C02EA580205F01C060F2354F802C0A4
:1043E00003FA06FA0B692CEA0A0CB34043EA0C0301
:1043F000A350D1F804A00AF0030C02680CFA0BF3E6
:1044000002EA0E021A431AF4403F02608AD041F2D7
:104410006003C4F202031A6840F2004E42F0010247
:104420001A601A68C4F2010E02F001020292029AA6
:1044300028F003024FF6084C7244CFF6FF7C52F886
:104440000C3005F00C060F24B440A343019C04FA81
:1044500006F6334342F80C30DEF808204B6842EA97
:10446000090640F20C4CDC0258BF22EA0906CEF8DD
:104470000860C4F2010CDCF800209C0242EA090644
:1044800058BF22EA0906CCF80060DEF804209C033D
:1044900042EA090658BF22EA0906CEF80460DEF8AF
:1044A0000020DB0342EA090658BF22EA0906CEF8DB
:1044B000006037E703B0BDE8F08F000000690840F6
:1044C00018BF0120704700001823002A08BF2823C6
:1044D000C150704745F6A800C1F20000006870475F
:1044E00047F29050C1F6FF700068704747F2945051
:1044F000C1F6FF700068704747F29850C1F6FF7030
:104500000068704790F84120202A03D190F840209D
:10451000012A01D102207047242280F8412002683C
:10452000136823F001031360136823F480531360AE
:10453000136819431160116841F0010111602021D5
:1045400080F84110002180F84010002070470000E2
:1045500090F84120202A03D190F84020012A01D16F
:1045600002207047242280F841200268136823F05B
:1045700001031360136823F4706343EA012111609F
:10458000116841F001011160202180F841100021E3
:1045900080F8401000207047002804BF01207047B9
:1045A00010B590F8411031B9002180F84010044650
:1045B00000F01CFE2046242180F8411090E81210E3
:1045C000C3680A68012B22F001020A6024F07062BD
:1045D0000A618A6822F400428A6003D14CF40042E6
:1045E0008A6008E04CF40442022B8A6003D14A68D6
:1045F00042F4006202E04A6822F400624A604A68BB
:1046000000F1100C42F0007242F400424A60CA68A5
:1046100022F40042CA609CE81C101A4342EA0422B9
:10462000CA60026A42EA0C020A600A6842F00102A9
:104630000A6000212022416480F84120016380F853
:104640004210002010BD00002DE9F04F81B004465B
:104650000020009094F84100202807D1206880694C
:10466000000403D494F84000012803D1022001B0D3
:10467000BDE8F08F8B4642F2000901201D469046AE
:10468000C0F2002984F8400024204FF0000A6FF3A4
:104690009F2B5F1C84F84100C4F844A0E0682168A7
:1046A0000128484618BF00F5006040EA0B0048604A
:1046B000FFF710FF216806468A698B6902F0200225
:1046C00003F01003D2180DD08869C00617D510204A
:1046D000C8613EE088698A6900F0200002F010029B
:1046E0008018F1D1002FF5D0FFF7F4FE002D5AD03D
:1046F000801BA84257D82168ECE700BF2168886971
:10470000800659D420462946324605F0D7FEB0B976
:10471000002FF3D0FFF7DEFE216815B1801BA84201
:10472000EDD988698006EAD4606C40F020006064AE
:10473000202084F8410084F842A084F840A0606CF6
:10474000042829D120682021C161C4F844A023E0B5
:104750002168886980061DD420462946324605F026
:10476000ADFEC8B9002FF3D0FFF7B4FE216815B134
:10477000801BA842EDD988698006EAD4606C40F0BD
:1047800020006064202084F8410084F842A084F86E
:1047900040A001E02020C8610098013000900098FE
:1047A0004045FFF47BAF202084F84100606C40F06E
:1047B00020006064012004E02020C86184F84100EA
:1047C0000020002184F8401001B0BDE8F08F000007
:1047D0002DE9F04F81B0044690F84100202803D124
:1047E00094F84000012803D1022001B0BDE8F08F09
:1047F00001208A4617461E4684F84000FFF76AFEED
:10480000216805468A69120427D4222084F84100D1
:10481000102084F84200002060646762668560634F
:10482000628D49F6000040F20008CFF60040B2F574
:10483000807FC0F2FF182AD34B6852466FF39F2245
:1048400003401A4342F0807242F492324A600122DD
:104850002CE000BF88690004D7D5204619212A46DC
:1048600005F02CFE002840F09180FFF733FE401B3E
:1048700021681A28EED388690004EBD5606C40F0FB
:1048800020006064202084F8410001208EE0628DC9
:1048900053464E686FF39F23D7B243EA074306EAB5
:1048A00000073B4308F592373B434B602285628DFE
:1048B0000A9F002A58D06FF39F2A0AF100797E1CC4
:1048C00000F5806B0BE0608D20854A68C0B249EA34
:1048D000004002EA0B0210434860608DE8B32046B6
:1048E00039462A4605F018FF00284FD12068616A32
:1048F000406A0870606A218D01306062481E208520
:10490000618D01396185618D0029E6D00004E4D113
:1049100021688869000612D4204639462A4605F0E7
:10492000CDFD98BB002EF3D0FFF7D4FD216817B161
:10493000401BB842EDD988690006EAD49EE7608D35
:10494000B0F5807FBFD3FF202085486800EA0B00C8
:1049500040EA0A0040EA0800BEE7216804E000BF20
:10496000886980067FF58AAF8869800612D4204660
:1049700039462A4605F0A2FD40B9FFF7ABFD216894
:10498000002FEDD0401BB842EED9E9E7012001B07D
:10499000BDE8F08F2020C8614A684EF60003CFF6CC
:1049A00000631A404A6084F841000020002184F826
:1049B000421084F8401001B0BDE8F08F2DE9F04FAF
:1049C00081B0044690F84100202803D194F84000BB
:1049D000012803D1022001B0BDE8F08F01208B46F1
:1049E0001E46174684F84000FFF774FD216805460F
:1049F0008A6912041DD4212084F84100102084F813
:104A0000420000206064676266856063608D49F6DD
:104A10000008B0F5807FCFF6004824D3FF20A146E0
:104A200029F8280F4FF0807226E000BF8869000443
:104A3000E1D5204619212A4605F040FD002840F026
:104A4000B380FFF747FD401B21681A28EED3886921
:104A50000004EBD5606C40F020006064202084F8F6
:104A600041000120B0E0608DA146002829F8280F00
:104A700000F0B2804FF0007217F8013B8B62676262
:104A8000638D013B6385431E23855B466FF39F2344
:104A9000C0B243EA00404B68104303EA08021043E7
:104AA00040F400504860608D0A9F00286AD06FF380
:104AB0009F2B0BF1007A7E1C01E000BF2168886902
:104AC000800713D4204639462A4605F0F7FC002813
:104AD0006AD1002EF2D0FFF7FDFC216817B1401B10
:104AE000B842ECD988698007E9D4B3E7606A10F866
:104AF000012B8A626062608D01386085208D0138EB
:104B00002085628DB2B3000401D033E0216888694A
:104B1000000613D4204639462A4605F0CFFC00286B
:104B200042D1002EF2D0FFF7D5FC216817B1401B0F
:104B3000B842ECD988690006E9D48BE7608DB0F5FE
:104B4000807F0CD3FF20A9F80000486808F5806238
:104B50001040002240EA0B00C0F2FF1208E0608D16
:104B600008F5806320854A68C0B24AEA00401A40CE
:104B700010434860608D0028A1D103E08869800659
:104B80007FF568AF8869800612D4204639462A46E8
:104B900005F094FC40B9FFF79DFC2168002FEDD093
:104BA000401BB842EED9E9E7012001B0BDE8F08F23
:104BB0002020C8614A684EF60003CFF600631A4011
:104BC0004A6084F841000020002184F8421084F8F3
:104BD000401001B0BDE8F08F486808225B4600EA4B
:104BE000080062F39F23184340F000705AE700006A
:104BF0002DE9F04F81B0044690F8410020280AD1F9
:104C00000A9F67B1DDF82CB0BBF1000F07D094F814
:104C10004000012807D1022001B0BDE8F08F4FF419
:104C200000706064BCE001201D468846924684F80E
:104C30004000FFF74FFC216806468A69120426D41B
:104C4000222084F84100402084F842000020606463
:104C50006762A4F82AB0606349F600094A68CFF693
:104C600000496FF39F28E8B248EA004002EA0902CF
:104C7000104400F5005048608869DDF830B08007C6
:104C80003CD40BF1010723E088690004D8D5204605
:104C90001921324605F012FC002840F08180FFF710
:104CA00019FC801B21681A28EED388690004EBD513
:104CB000606C40F020006064202084F841000020F7
:104CC00084F842006AE000BF21688869800715D433
:104CD00020465946324605F0F1FB00285DD1002FF1
:104CE000F2D0FFF7F7FB2168BBF1000F02D0801B69
:104CF0005845EAD988698007E7D444E0012D21D0DE
:104D00004FEA1A208862886980071BD40BF10105DD
:104D100003E021688869800714D42046594632464A
:104D200005F0CCFBC8BB002DF3D0FFF7D3FB216807
:104D3000BBF1000F02D0801B5845EBD98869800772
:104D4000E8D420E05FFA8AF08862886940062BD4B4
:104D50000BF1010503E021688869400624D4204650
:104D60005946324605F0AAFBB8B9002DF3D0FFF73B
:104D7000B1FB2168BBF1000F02D0801B5845EBD975
:104D800088694006E8D4606C40F020006064202010
:104D900084F84100002084F84200002084F840009C
:104DA000012001B0BDE8F08F608D40F2000AB0F53F
:104DB000807FC0F2011A07D351F8040F0AF510538F
:104DC00000EA090201200BE0608D51F8042FC3B204
:104DD00002EA090242EA034242F20043C0F200231F
:104DE0001A4342EA080208F100770BF101050A6054
:104DF000208500BF21688869400715D420465946A0
:104E0000324605F05BFB0028CAD1002DF2D0FFF737
:104E100061FB2168BBF1000F02D0801B5845EAD925
:104E200088694007E7D443E7486A616A0870606AA6
:104E3000218D01306062481E2085618D01396185B8
:104E4000618D99B3000431D121688869000615D4B9
:104E500020465946324605F031FB0028A0D1002DEE
:104E6000F2D0FFF737FB2168BBF1000F02D0801BA7
:104E70005845EAD988690006E7D419E7608DB0F58E
:104E8000807F09F5806008D3012222854A6810409E
:104E900040EA080040EA0A0007E0628D22854B687C
:104EA000D2B247EA0242184010434860608D0028A1
:104EB000A0D120465946324605F096FC00287FF4E2
:104EC0006FAF20682021C16142684EF60003CFF623
:104ED00000631A404260002084F8411084F84200C8
:104EE00084F8400001B0BDE8F08F00002DE9F04FDC
:104EF00081B0044690F8410020280AD10A9F67B18A
:104F0000DDF82CB0BBF1000F07D094F84000012869
:104F100007D1022001B0BDE8F08F4FF4007060644B
:104F2000C0E001201D468846924684F84000FFF705
:104F3000D1FA216806468A6912042AD4212084F80D
:104F40004100402084F84200002049F60049606496
:104F50006762A4F82AB06063CFF600494A686FF32D
:104F60009F28E8B2A9F5806348EA00401A4010443F
:104F700040F0807040F4005048608869DDF830B03F
:104F800080073DD40BF1010724E000BF88690004CD
:104F9000D4D520461921324605F090FA002840F079
:104FA0008180FFF797FA801B21681A28EED3886961
:104FB0000004EBD5606C40F020006064202084F891
:104FC0004100002084F842006AE000BF216888693F
:104FD000800715D420465946324605F06FFA00285E
:104FE0005DD1002FF2D0FFF775FA2168BBF1000FF9
:104FF00002D0801B5845EAD988698007E7D444E08D
:10500000012D21D04FEA1A208862886980071BD4BD
:105010000BF1010503E021688869800714D420465C
:105020005946324605F04AFAC8BB002DF3D0FFF7C7
:1050300051FA2168BBF1000F02D0801B5845EBD913
:1050400088698007E8D420E05FFA8AF0886288697E
:1050500000062BD40BF1010503E0216888690006E6
:1050600024D420465946324605F028FAB8B9002D16
:10507000F3D0FFF72FFA2168BBF1000F02D0801B9D
:105080005845EBD988690006E8D4606C40F02000F0
:105090006064202084F84100002084F84200002051
:1050A00084F84000012001B0BDE8F08F608DB0F5BC
:1050B000807F09D3084650F8042F0027C0F2FF175D
:1050C00002EA0903FF220AE00846628D50F8043F15
:1050D000D7B203EA090343EA07434FF000773B43A3
:1050E000002743EA080308F1007A0BF10105C0F23A
:1050F000FF170360228500E021688869800715D4C6
:1051000020465946324605F0D9F90028CAD1002D6B
:10511000F2D0FFF7DFF92168BBF1000F02D0801B4E
:105120005845EAD988698007E7D443E7606A10F8F0
:10513000012B8A626062608D01386085208D0138A4
:105140002085628D9AB3000401D030E0216888691F
:10515000000615D420465946324605F0AFF900281E
:10516000A0D1002DF2D0FFF7B5F92168BBF1000FF7
:1051700002D0801B5845EAD988690006E7D419E7B0
:10518000608DB0F5807F08D3FF202085486800EA55
:10519000090040EA0800384308E0608D20854A682D
:1051A000C0B24AEA004002EA090210434860608D3A
:1051B0000028A2D120465946324605F015FB0028AA
:1051C0007FF470AF20682021C16142684EF6000371
:1051D000CFF600631A404260002084F8411084F842
:1051E000420084F8400001B0BDE8F08F10B5A8B0CF
:1051F000044600202790CDE92500CDE9230002A830
:105200008421FBF766F8206845F60001C4F200012E
:10521000884234D045F20041C4F2000188425FD197
:105220004020029002A800F02FFD002818BFFDF7D3
:1052300067FA41F24C04C4F20204206823A940F04A
:1052400002002060206800F0020001900198C02058
:1052500023901220249000202590032026900420E3
:10526000279040F20040C4F60000FFF73BF8E068EA
:1052700040F40010E060E06800F400102EE08020B0
:10528000029002A800F000FD002818BFFDF738FAD0
:1052900041F24C04C4F20204206823A940F0020049
:1052A0002060206800F00200019001984FF44060F7
:1052B0002390122024900020259003202690042083
:1052C000279040F20040C4F60000FFF70BF8E068BA
:1052D00040F48000E060E06800F4800001900198F4
:1052E00028B010BD40F2B11045F6A801C1F200008F
:1052F000C1F2000100780A6810440860704700009D
:1053000080B542F20000C4F20200016841F48071ED
:105310000160032000F0D4F90F2000F009F8002804
:105320001CBF012080BD00F073F9002080BD00008B
:10533000B0B586B041F25801C4F202010A680446D1
:1053400042F010020A60096801A801F01001019101
:105350000199694600F054FF049D002D18BF0125F6
:1053600000F070FF4DF68361A840C4F21B31A0FB32
:1053700001014FF0FF3000EB914140F6C82041F2AF
:105380000002C1F20000C4F2000240F2E73300253F
:10539000C0E90021C0E902530561856102F00EFCFD
:1053A00008B106B0B0BD40F6C820C1F2000002F05E
:1053B000DDFC0028F5D1362000F044F90F2C0CD884
:1053C00036202146002200F04FF943F65C510020C0
:1053D000C2F200010C6006B0B0BD012006B0B0BD45
:1053E00070470000704700007047000070470000E1
:1053F000704700007047000010B501680446086857
:10540000C0071CBF88685FEAC07030D10868800799
:1054100044BF88685FEA807030D40868400744BFA2
:1054200088685FEA407030D40868000744BF886825
:105430005FEA007030D40868C00644BF88685FEA3D
:10544000C06030D40868800644BF88685FEA806026
:1054500030D40868400646BF88685FEA406010BDE7
:10546000402220464A60BDE81040FFF7C1BF01203E
:1054700048602046FFF7B8FF2168C7E70220486070
:105480002046FFF7ADFF2168C7E7042048602046AB
:1054900000F0BCF82168C7E7082048602046FFF705
:1054A000A5FF2168C7E7102048602046FFF79AFF54
:1054B0002168C7E7202048602046FFF79BFF21684E
:1054C000C7E70000002804BF012070472DE9F04124
:1054D00090F8361031B9002180F83510044600F0FC
:1054E0005FF82046022180F83610D0E900C4D0F8D9
:1054F00028E0DCF80C10012C04D0BEF5000F03D11D
:105500004FF4000E21F01E0143698268D0E908566D
:105510004FF6FF7741F23E18BB424FF2FE17CFF62F
:10552000197818BF01EA0801CFF619772A433940E4
:105530003243114341EA0E0104B3012C44EA010451
:1055400002D0BEF5000F04D1D0E90312214341EA95
:1055500002044FF6FF718B4204D0D0E906121143CA
:1055600019430C4347F60041CCF80C40C4F200014B
:10557000C26A8C450BD0CCF820200BE00269C469CC
:10558000224342EA0104BEF5000FDDD0E1E7036BE0
:105590001A430A62012180F836100020BDE8F0812C
:1055A00010B5A2B0044601A804308021FAF791FE9C
:1055B000206847F60041C4F20001884201D022B0C1
:1055C00010BD4FF4007001904FF44020189001A8D6
:1055D00000F05AFB002818BFFDF792F841F258007E
:1055E000C4F202000168002241F00041016000683D
:1055F000052100F0004000900098412000F034F8B0
:10560000412000F01FF822B010BD000070470000DC
:1056100082B041F25800C4F20200816841F00101F9
:105620008160816801F0010101910199016841F0F7
:1056300080510160006800F080500090009802B036
:1056400070470000002848BF704700F01F0101228A
:1056500002FA01F11C2202EAD0004EF20012CEF250
:10566000000281507047000010B54EF60C5CCEF27F
:10567000000CDCF80030C3F3022E8EF00704042C7B
:1056800028BF0424BEF103034FF0FF3E0EFA04F4DA
:1056900038BF0023A14399400EFA03F39A43114304
:1056A00000F00F0200F160430901043A03F564437E
:1056B0006244002848BF02F10C03197010BD0000BD
:1056C0004EF60C51CEF200010A684FF6FF031A4065
:1056D00060F30A2242F0806040F0FD70086070477D
:1056E00047F20001C4F200010A68B0F5007F02F43D
:1056F000C06031D1B0F5007F2CD00868012262F380
:105700004A20086040F20C00C2F200000068322219
:1057100050434DF68362C4F21B32A0FB0202900C90
:105720004A69520511D5421C0FD04A6952050CD561
:1057300058B14A69520508D5012806D04A69520570
:1057400003D50228A0F10400EAD14869400544BF0E
:105750000320704700207047B0F5806FFAD00868CA
:10576000022262F34A2008600020704747F20000DE
:10577000C4F20000006800F4C060704747F2000007
:10578000C4F20000016841F48071016070470000BC
:10579000F0B581B00446FEF79DFE94F83910054639
:1057A00088074FF000001AD584F8380021680A688D
:1057B00052070DD5086820F004000860606BFEF702
:1057C0008DFB20B1E16B41F00401E16300E00020BA
:1057D00021688A68920604D4012184F8391001B046
:1057E000F0BD086840F002000860266C88688007F9
:1057F0000FD4771C03E000BF8868800709D4002F0E
:10580000FAD0FEF767FE1EB3401BB04220D82168D5
:10581000F2E70220C860266C8868800609D44869CF
:1058200020F040604861012084F83900002001B078
:10583000F0BD771C04E000BF216888688006EED5C3
:10584000002FFAD0FEF746FE16B1401BB042F3D946
:10585000042084F83900E06B40F00100E06301208F
:1058600001B0F0BD2DE9F041154688460446FEF72B
:1058700031FE94F83810012904BF0220BDE8F08100
:105880000646012084F8380094F8390001284FF0CA
:10589000020041D10021E16384F839002068816869
:1058A00089061AD42046414600220BF02DFAD8F87A
:1058B000240068BB20688168890727D46F1C02E038
:1058C0008168890722D4002FFAD0FEF703FEA5B124
:1058D000801BA84211D82068F2E76F1C03E000BFCC
:1058E00081688906DED5002FFAD0FEF7F3FD25B1D9
:1058F000801BA84201D82068F2E7042084F8390010
:10590000E06B40F00100E063012005E00221C1608E
:10591000012084F839000020002184F83810BDE807
:10592000F0810000002804BF0120704710B5016815
:1059300004460A6822F001020A6000F0C9F800205B
:10594000E06384F8390084F8380010BDF0B581B008
:105950000446FEF7BFFD002C43D0054694F83900FD
:1059600040B9002084F83800204600F0C9F841F220
:10597000883020642068A168266C02686FF0FF03FD
:1059800022F4706203EB01211143016081688906F2
:105990002AD401684FF6EF72C0F2FF02D4E9033750
:1059A00011406268194341EA026166690160416819
:1059B0004FF6FE02CFF6E0721140A269314341EA90
:1059C000074111434160016841F00101016000207D
:1059D0000121E06384F83910002184F8381001B007
:1059E000F0BD012001B0F0BD771C02E0816889069E
:1059F000CFD5002FFAD0FEF76DFD26B1401BB04287
:105A000001D82068F2E7042084F83900E06B40F008
:105A10000100E0630120DFE72DE9F04381B091460A
:105A200088460446FEF756FD94F83810012903D144
:105A3000022001B0BDE8F0830746012084F8380059
:105A400094F83900012823D10020E063822084F8F3
:105A500039002068256C8168890620D40168D9F84E
:105A6000042021F008011143082A016008D1D9F867
:105A7000001001631021C160016841F480110160D0
:105A8000204641464FF040620BF03EF9002000E016
:105A90000220002184F8381001B0BDE8F0836E1CAC
:105AA00003E000BF81688906D8D5002EFAD0FEF742
:105AB00011FD25B1C01BA84201D82068F2E70420DF
:105AC00084F83900E06B40F00100E0630120E0E77A
:105AD000014641F20000C4F60000096800F1B0423E
