:020000040800F2
:10000000080A0020A1010008EF170008491600089F
:10001000ED170008B50200084121000800000000AB
:10002000000000000000000000000000D91A0008D5
:10003000B702000800000000F1170008DB1A0008F2
:10004000BB010008BB010008BB010008BB010008A0
:10005000BB010008BB010008BB010008BB01000890
:10006000BB010008BB010008BB010008BB01000880
:10007000BB010008BB010008BB010008BB01000870
:10008000BB010008BB010008BB010008BB01000860
:10009000BB010008BB010008BB010008BB01000850
:1000A000BB010008BB010008BB010008BB01000840
:1000B000BB010008BB010008BB010008BB01000830
:1000C000BB010008BB010008BB010008BB01000820
:1000D000BB010008BB010008BB010008BB01000810
:1000E000BB010008BB010008BB010008BB01000800
:1000F000BB010008BB010008BB010008BB010008F0
:10010000BB010008BB010008BB010008BB010008DF
:10011000BB010008BB010008BB010008BB010008CF
:10012000BB010008BB010008BB010008BB010008BF
:10013000BB010008BB010008BB010008BB010008AF
:10014000BB010008BB010008BB0100080000000063
:10015000BB010008BB010008BB010008BB0100088F
:10016000BB010008BB010008BB010008BB0100087F
:10017000BB010008BB0100080000000000000000F7
:10018000BB010008BB010008DFF810D000F080F8C8
:100190000048004781210008AFF30080080A0020D2
:1001A0000648804706480047FEE7FEE7FEE7FEE711
:1001B000FEE7FEE7FEE7FEE7FEE7FEE74D1B000871
:1001C000890100082DE9F05F0546002092469B4614
:1001D00088460646814640241BE02846414647465D
:1001E000224600F044F853465A46C01A914110D3B3
:1001F00011461846224600F02BF82D1A67EB01082D
:100200004F4622460120002100F022F817EB00099A
:100210004E41201EA4F10104DFDC484631462A4647
:10022000434600F000B830BCBDE8C09FD2B201E048
:1002300000F8012B491EFBD270470022F6E710B5EB
:1002400013460A4604461946FFF7F0FF204610BD44
:10025000202A04DB203A00FA02F100207047914086
:10026000C2F1200320FA03F3194390407047202A7B
:1002700004DB203A21FA02F00021704721FA02F350
:10028000D040C2F120029140084319467047000057
:10029000064C074D06E0E06840F0010394E80700D3
:1002A00098471034AC42F6D3FFF772FFEC210008F8
:1002B0000C220008FEE7704772B6FEE72DE9F04712
:1002C00004460D469246607901280BD04FF0010894
:1002D00084F805800220207128680AF0100604289E
:1002E00003D055E00220BDE8F08700F0C9F90746C9
:1002F0004FF00309BAF1000F11D02CE000F0C0F963
:10030000C01B01280BD92068406B000407D5206969
:1003100040F00800206184F804900320E3E720689F
:10032000406B0004EAD4012000F0AAF82168A86913
:1003300008641AE000F0A4F9C01B01280BD920685A
:10034000406B002807DA206940F00800206184F83B
:1003500004900320C7E72068406B0028EADB0120F7
:1003600000F08EF82168A86948642068816C40F22A
:10037000FF32B2409143EA69B24011438164206880
:10038000C16CFF22B24091432A6AB2401143C1645A
:100390002869012808D12068826B1F21B1408A4357
:1003A0006969B140114381632068C26B0721B14084
:1003B0008A43AB6829681943EB681943B14011437C
:1003C000C163206801684FF48042B24091430160EC
:1003D0002068026840F6FC71B1408A436968B14008
:1003E0001143016020680168C022B240914301605E
:1003F00084F804800020607175E770B50446002C15
:1004000003D02079002510B105E0012070BD657191
:10041000204600F007F8022020712561012020719C
:10042000002070BD10B586B00446142101A8FFF766
:1004300004FF1149206888421BD11048816D41F0AA
:1004400000518165816D01F000510091C16C41F056
:100450000101C164C06C00F0010000901020019007
:10046000032002900020039001A94FF0904000F07B
:1004700019F806B010BD00000074004000100240E2
:1004800070B5044600F0FCF80546601C02D0044834
:100490000078044400F0F4F8401BA042FAD370BD89
:1004A000000000202DE9F84F0022DFF8A8914FF05E
:1004B000010803274FF00F0C09F1040AA9F1040BFE
:1004C000C1E008FA02F42340002B76D00D7905F044
:1004D0000305012D01D0022D15D18668550007FABC
:1004E00005FE26EA0E06D1F80CE00EFA05FE4EEAED
:1004F000060EC0F808E04568A5430E79C6F300165D
:1005000096402E4346604D68EE43B60706D1C66A54
:10051000A643C5F3C00494403443C4620C79E44359
:10052000A40708D0C568540007FA04F6B5438E68DE
:10053000A6402E43C6600C7904F00304022C11D1AE
:10054000D40800EB8406356A5407E40E0CFA04FE66
:1005500025EA0E05D1F810E00EFA04FE4EEA050E6B
:10056000C6F820E00568540007FA04F6B5430E7992
:1005700006F00306A6402E4306604C6814F4403F84
:1005800060D0354C256E45F001052566246E04F0DB
:1005900001040094314C22F003052E19B56894072C
:1005A0004FEA147E0CFA0EF4A543B0F1904F05D03B
:1005B0002B4CA04204D101241CE043E0002419E0AC
:1005C000284CA04201D1022414E0274CA04201D1C2
:1005D00003240FE0254CA04201D104240AE0244C5E
:1005E000A04201D1052405E0224CA04201D10624FD
:1005F00000E0072404FA0EF42C43B460D9F800405C
:100600009C434D68ED0200D51C43C9F80040DAF860
:1006100000409C434D68AD0200D51C43CAF8004021
:10062000DBF800409C434D68AD0300D51C43CBF87C
:100630000040084D083D2C689C434E68F60300D5E9
:100640001C432C60521C0B6833FA02F47FF439AF60
:1006500000F012B808040140001002400000014000
:100660000004004800080048000C00480010004842
:10067000001400480018004818BCBDE8E08F0000D6
:10068000014880687047000000000020024881682F
:1006900002781144816070470000002010B50024EA
:1006A000032000F067F80F2000F008F808B10124DB
:1006B00001E000F029F8204610BD000070B50546A5
:1006C00000240F4E3078002817D04FF47A71B1FB18
:1006D000F0F00C490968B1FBF0F000F047FE08B1FA
:1006E00001240BE0102D06D200222946501E00F0F6
:1006F00021F8756002E0012400E00124204670BD6D
:10070000000000200C00002008B50948016E41F0EF
:1007100001010166016E01F001010091816D41F05E
:1007200080518165806D00F08050009008BD000010
:1007300000100240F0B40D460D4B1B68C3F30223BA
:10074000C3F10704042C00D90424191D072901D280
:10075000002300E0DB1E012606FA04F1491E2940B1
:1007600099409E40761E16403143F0BC01F0E9BC32
:100770000CED00E000F00701054A10684FF6FF039A
:10078000184040EA01200349084310607047000008
:100790000CED00E00000FA051749B0F5007F0CD021
:1007A0000868C0F34120022805D0086820F4C06022
:1007B00040F480600860002070470868C0F3412062
:1007C0000128F8D0086820F4C06040F40070086088
:1007D0000A48322200685043094AB0FBF2F0401C3C
:1007E00000E0401E4A69520501D50028F9D1486948
:1007F0004005E0D503207047007000400C00002049
:1008000040420F000248006800F4C06070470000DA
:10081000007000402DE9F84F04460025002720888D
:10082000D94E000504F1200B0DD5606ED0B3B0F5A4
:10083000800F45D0B0F5000F37D0B0F5400F00D095
:10084000012585B32F462088C0040DD5A06E58B36E
:10085000B0F1807F4FD0B0F1007F41D0B0F1407F48
:1008600000D0012595B32F462068800363D54FF053
:100870000008B06DC00009D4B06D40F08050B06584
:10088000B06D00F0805000904FF00108DFF8FCA23E
:10089000DAF8000040F48070CAF80000FFF7F0FEBC
:1008A00081463FE006E012E01FE0F06840F480304F
:1008B000F060C6E70021201D00F09CFF0546C0E760
:1008C0000021584601F038F80546BAE719E0D6F895
:1008D0008800616E20F440000843C6F88800B2E743
:1008E000F06840F48030F060BCE70021201D00F08B
:1008F00081FF0546B6E70021584601F01DF8054680
:10090000B0E7D6F88800A16E20F040700843C6F822
:100910008800A9E7FFF7B4FEA0EB0900022801D97F
:10092000032503E0DAF80000C005F3D525B12F4612
:10093000B8F1010F38D03BE0D6F8900000F44070D9
:1009400088B1D4F8801081420DD056F8900F20F471
:100950004070316841F480313160316821F4803178
:10096000316046F89009C00711D0FFF789FE814633
:1009700041F2883A07E0FFF783FEA0EB09005045FB
:1009800001D9032503E0D6F890008007F3D50DB117
:100990002F46CDE7D6F89000D4F8801020F44070B0
:1009A0000843C6F89000C3E7B06D20F08050B065F2
:1009B0002078C00707D0D6F88800A16B20F003008C
:1009C0000843C6F888002078800707D5D6F8880045
:1009D000E16B20F00C000843C6F88800207840073F
:1009E00007D5D6F88800216C20F030000843C6F8FF
:1009F00088002078000707D5D6F88800616C20F0C1
:100A0000C0000843C6F888002078C00607D5D6F88D
:100A10008800A16C20F440700843C6F88800207854
:100A2000800607D5D6F88800E16C20F440600843C2
:100A3000C6F888002088800507D5D6F88800E16DC3
:100A400020F440200843C6F888002088400507D5D8
:100A5000D6F88800216E20F440100843C6F88800BC
:100A60002078400607D5D6F88800216D20F4405044
:100A70000843C6F888002078000607D5D6F8880015
:100A8000616D20F440400843C6F888002088C00506
:100A900007D5D6F88800A16D20F440300843C6F889
:100AA000880020684FF0006500034FF0806817D57C
:100AB000D6F88800E16E20F040600843C6F8880050
:100AC000E06EA84204D1F06840F48010F06007E0C6
:100AD000404505D10121201D00F08CFE00B10746E4
:100AE0002068400317D5D6F88800216F20F04060B9
:100AF0000843C6F88800206FA84204D1F06840F48B
:100B00008010F06007E0404505D10121201D00F074
:100B100071FE00B10746208840041CD5D6F8880035
:100B2000616F20F040500843C6F88800606FB0F154
:100B3000805F03D0B0F1005F07D00CE00221201DE0
:100B400000F058FE38B1074605E00221584600F093
:100B5000F3FE00B107462088000407D5D6F88800C8
:100B6000A16F20F080400843C6F888002068C003C9
:100B700006D556F8880FE16F20F00040084330603A
:100B8000384600F005B80000001002400070004038
:100B900018BCBDE8E08F00002DE9F04704460D4683
:100BA000002C17D0DFF84C81D8F8000000F00700C7
:100BB000A84211D2D8F8000020F007002843C8F856
:100BC0000000D8F8000000F00700A84204D001207F
:100BD000BDE8F0870120FBE72078474E80070AD563
:100BE000A068B16801F0F001884204D9B16821F031
:100BF000F0010143B1602078C00732D0606803285B
:100C000007D002280AD070B13168490510D40120FC
:100C1000DEE7316889010BD40120D9E73168890307
:100C200006D40120D4E73168890701D40120CFE739
:100C3000B16821F003010143B160FFF721FD0746D0
:100C400041F2883906E0FFF71BFDC01B484501D97A
:100C50000320BDE7B068616800F00C00B0EB810FC5
:100C6000F1D1207880070AD5A068B16801F0F001C1
:100C7000884204D2B16821F0F0010143B160D8F894
:100C8000000000F00700A8420ED9D8F8000020F0BC
:100C900007002843C8F80000D8F8000000F007005B
:100CA000A84201D0012093E72078400705D5B0681D
:100CB000E16820F4E0600843B0602078000706D5C2
:100CC000B068216920F4605040EAC100B06000F0D3
:100CD00045F8B168094AC1F30311515C01F01F01E5
:100CE000C8400749086007480068BDE8F047FFF7BB
:100CF000E5BC00000020024000100240A4210008D2
:100D00000C0000200400002001480068704700002B
:100D10000C00002000B5FFF7F7FF05498968054A78
:100D2000C1F30221515C01F01F01C84000BD000069
:100D300000100240E421000800B5FFF7E5FF054977
:100D40008968054AC1F3C221515C01F01F01C84006
:100D500000BD000000100240E421000870B5002230
:100D60000020244B996801F00C01DC6804F00304B6
:100D7000214D6E10002908D00C2901D1012C04D07E
:100D8000042913D0082913D013E01A68120704D4D9
:100D9000D3F89420C2F3032202E01A68C2F30312CC
:100DA000164C54F8222021B9104602E0284600E0F3
:100DB00030460C2918D1D86800F00300022814D05E
:100DC000032814D01046D968C1F30211491CDA680F
:100DD000C2F306224243B2FBF1F0D968C1F341618C
:100DE000491C4900B0FBF1F070BD2846EBE73046E6
:100DF000E9E70000001002400024F400B4210008DC
:100E00002DE9F8430446002C0DD0F94EB06800F0EF
:100E10000C05F06800F003072078C0066AD595B18C
:100E20000C2D03D004E00120BDE8F883012F0AD087
:100E3000A06900287DD0306840F001003060FFF7E5
:100E40001FFC80465FE03068800701D5A06938B19B
:100E5000206A3168090705D5316801F0F00106E024
:100E60000120E1E7D6F8941001F470610909884285
:100E700016D900F0EFFD08B10120D5E7306840F049
:100E8000080030603068216A20F0F00008433060CC
:100E90007068E16920F47F4040EA0120706017E04B
:100EA000306840F0080030603068216A20F0F000BF
:100EB000084330607068E16920F47F4040EA012017
:100EC00070602DB9206A00F0C5FD08B10120ABE7C4
:100ED000FFF744FFB168C74AC1F30311515C01F049
:100EE0001F01C840C4490860C4480068FFF7E6FB1A
:100EF000002899D130E0FFF7C3FBA0EB08000228DF
:100F000001D9032090E730688007F4D5306840F0BD
:100F1000080030603068216A20F0F000084330603B
:100F20007068E16920F47F4040EA0120706013E0BE
:100F3000FFE7306820F001003060FFF7A1FB80463A
:100F400007E0FFF79DFBA0EB0800022801D9032072
:100F50006AE730688007F4D42078C0074AD0082DAB
:100F600018D00C2D01D1032F14D06068B0F5803F4C
:100F700017D0B0F5A02F19D0306820F48030306041
:100F8000306820F480203060606820B3FFF778FB81
:100F900080461CE0306880032CD5606850BB01207F
:100FA00042E7306840F480303060EDE7306840F46C
:100FB00080203060306840F480303060E4E7FFF734
:100FC0005FFBA0EB0800642801D903202CE7306800
:100FD0008003F4D50EE0FFF753FB804607E0FFF7F0
:100FE0004FFBA0EB0800642801D903201CE7306800
:100FF0008003F4D42078800742D5042D0DD00C2D29
:1010000001D1022F09D0E06840B3306840F480700D
:101010003060FFF735FB074615E03068400501D525
:10102000E06838B17068217C20F0F85040EA016037
:10103000706025E00120F7E6FFF722FBC01B0228C5
:1010400001D90320F0E630684005F5D57068217CB1
:1010500020F0F85040EA0160706011E0306820F440
:1010600080703060FFF70CFB074606E0FFF708FBD7
:10107000C01B022801D90320D6E630684005F5D40C
:10108000207800072CD56069A8B1D6F8940040F00C
:101090000100C6F89400FFF7F3FA074606E0FFF7F1
:1010A000EFFAC01B022801D90320BDE6D6F8940050
:1010B0008007F4D514E0D6F8940020F00100C6F8BB
:1010C0009400FFF7DDFA074606E0FFF7D9FAC01BE8
:1010D000022801D90320A7E6D6F894008007F4D4AB
:1010E0002078400776D54FF00008B06DC00009D4D5
:1010F000B06D40F08050B065B06D00F08050009051
:101100004FF00108DFF8F890D9F80000C00514D4BA
:10111000D9F8000040F48070C9F80000FFF7B0FA79
:10112000074606E0FFF7ACFAC01B022801D90320EE
:101130007AE6D9F80000C005F4D5A068012813D0DC
:10114000052818D056F8900F20F001003060306864
:1011500020F0040046F89009A06841F2883710B3E7
:10116000FFF78EFA814619E0D6F8900040F00100B2
:10117000C6F89000F0E756F8900F40F00400306099
:10118000306840F0010046F89009E5E7FFF778FA8B
:10119000A0EB0900B84201D9032045E6D6F890003B
:1011A0008007F3D50FE0FFF76BFA814607E0FFF702
:1011B00067FAA0EB0900B84201D9032034E6D6F85B
:1011C00090008007F3D4B8F1010F03D1B06D20F087
:1011D0008050B065A06A88B3022813D00C2D7CD053
:1011E000306820F080703060FFF74AFA0446AEE0C5
:1011F00000100240A42100080C0000200400002080
:1012000000700040F068E26A00F003014FF0FF3721
:10121000914228D1216B00F07002491EB2EB011FF0
:1012200021D1626B00F4FE41B1EB022F1BD1A16B07
:1012300000F40032072902D0012101E07FE0002103
:101240008A4210D1A28F00F4C00107EB5202B1EB29
:10125000425F08D194F8401000F0C06007EB5101E4
:10126000B0EB416F52D00C2D4ED03068400102D40B
:101270003068C00001D50120D6E5306820F08070CC
:101280003060FFF7FDF9054606E0FFF7F9F9401B6E
:10129000022801D90320C7E530688001F5D4D4E9DC
:1012A0000B10401E41EA0010616BA28F090207EB90
:1012B000520241EA4251084394F8401007EB5101B1
:1012C00040EA4160A16B090940EA4140F168254AC2
:1012D00011400843F060306800E041E040F0807069
:1012E0003060F06840F08070F060FFF7C9F90446A4
:1012F00006E0FFF7C5F9001B022801D9032093E59A
:1013000030688001F5D529E001208DE53068800145
:1013100024D4306840F080703060F06840F0807015
:10132000F060FFF7ADF9044606E0FFF7A9F9001BEE
:10133000022801D9032077E530688001F5D50DE05A
:10134000FFF79EF9001B022801D903206CE53068E5
:101350008001F5D4F06804490840F060002063E59E
:10136000012061E58C809DF9FCFFEEFE10B5401E6A
:10137000B0F1807F01D3012010BD4FF0E024606107
:101380000F21601700F0DDFE0020A0610720206122
:10139000002010BDF0B590F83C20012A37D001267E
:1013A00080F83C60022280F83D2003685A689C68FF
:1013B000184FDFF864C0BB4201D0634503D122F46B
:1013C00070054A682A4322F070050A682A435A6069
:1013D0000268BA4210D0B2F1804F0DD00F4B9A4242
:1013E0000AD00F4B9A4207D00E4B9A4204D0624566
:1013F00002D00D4B9A4204D124F08003896819432E
:1014000091603C304670002101700020F0BD022048
:10141000F0BD0000002C01400034014000040040F9
:1014200000080040000C00400040014010B5044698
:10143000002C03D094F83D0010B107E0012010BD4E
:10144000002084F83C00204600F018F8022084F8C0
:101450003D00211D206800F081FB01203D34E07239
:101460006070A070E07020716071A071E0712072F6
:101470006072A0722070002010BD000008B50068E6
:101480000649884208D10648816D41F01001816506
:10149000806D00F01000009008BD000000100040BA
:1014A0000010024010B50446002C02D0E06F10B1CD
:1014B00007E0012010BD002084F87800204600F0ED
:1014C00027F82420E0672068016821F0010101600D
:1014D000606A10B1204600F0A8FB204600F084FCB2
:1014E000012813D02068416821F4904141602068B0
:1014F000816821F02A0181602068016841F00101C2
:1015000001602046BDE8104000F0F3BB012010BD93
:101510002DE9F041A8B00446142123A8FEF78DFE62
:10152000842102A8FEF789FE41492068414C032727
:10153000022600254FF00708884228D1012002909A
:10154000109502A8FFF766F908B1FEF7B5FE206E08
:1015500040F480402066206E00F480400190E06CF2
:1015600040F00100E064E06C00F0010001904FF4F5
:10157000C0602390249625952697CDF89C8023A9BA
:101580004FF09040FEF78EFF28B0BDE8F0812A4969
:10159000884223D10296119502A8FFF73BF908B1C2
:1015A000FEF78AFEA06D40F40030A065A06D00F447
:1015B00000300190E06C40F00800E064E06C00F066
:1015C0000800019060202390249625952697CDF859
:1015D0009C8023A91948FEF765FFD5E71849884282
:1015E000D2D104200290129502A8FFF713F908B196
:1015F000FEF762FEA06D40F48020A065A06D00F4AF
:1016000080200190E06C40F00400E064E06C00F0A9
:10161000040001904FF4406023902496259526976E
:10162000CDF89C8023A90748FEF73CFFACE70000FB
:10163000003801400010024000440040000C004807
:101640000048004000080048FEE7000000B589B0EF
:1016500024216846FEF7F1FD0E490D480860084652
:10166000FEF7CBFE08B1FEF727FE002000900190A8
:101670000290012103910490002269460548FEF77B
:101680001DFE002801D0FEF717FE09B000BD0000C6
:10169000007400401000002008B51548C16C41F0EE
:1016A0001001C164C16C01F010010091C16C41F0E6
:1016B0000401C164C16C01F004010091C16C41F0EE
:1016C0008001C164C16C01F080010091C16C41F0E6
:1016D0000101C164C16C01F001010091C16C41F0D4
:1016E0000801C164C06C00F00800009008BD000053
:1016F000001002403EB500240094019402940D486D
:101700000B490160446084604FF6FF71C1608461E1
:10171000FFF78CFE08B1FEF7CFFD009402946946F6
:101720000448FFF737FE002801D0FEF7C5FD3EBD97
:10173000001000402400002010B50D480B49016046
:101740004FF4E131416000218160C16001610C22F0
:1017500042618161C16101624162FFF7A3FE00281D
:1017600003D0BDE81040FEF7A7BD10BD0038014012
:101770007000002010B50D480B4901604FF4E131B5
:10178000416000218160C16001610C224261816180
:10179000C16101624162FFF785FE002803D0BDE808
:1017A0001040FEF789BD10BD00440040F800002045
:1017B00010B50D480B4901604FF4E1314160002143
:1017C0008160C16001610C2242618161C16101627D
:1017D0004162FFF767FE002803D0BDE81040FEF726
:1017E0006BBD10BD0048004080010020FEE7FEE711
:1017F000704700002DE9F0410546884600244A4E16
:10180000F068810728680ED0F16801F00301814279
:1018100007D130B1F0686968C0F30210401C8842FB
:1018200025D0012423E0012806D0022809D003286E
:101830000CD0012494B11AE031688907FAD401244C
:10184000F8E731684905F5D40124F3E731688903E5
:10185000F0D431684903EDD40124EBE7F16821F0BD
:1018600073026968491E42EA01110143F16074BBC9
:10187000306820F080603060FEF702FF074606E027
:10188000FEF7FEFEC01B022801D9032402E03068E7
:101890000001F5D4DCB9B8F1000F19D04FF0FF30DA
:1018A000B8F1010F20D0A9682A7D090200EB52008F
:1018B00041EA406031691D4A114008433061306897
:1018C00040F080603060FEF7DBFE074620E027E056
:1018D000A868E9680002090940EA41403169144AF0
:1018E000114008433061EAE7A9682A8A090200EB3F
:1018F000520041EA405130690E4A104001433161C3
:10190000DDE7FEF7BDFEC01B022801D9032402E07B
:1019100030680001F5D51CB93069A9690843306108
:101920002046BDE8F081000000100240FF80FFF972
:10193000FF80FDFFFF809FFF2DE9F04105468846AF
:101940000024414EF068810728680ED0F16801F04C
:101950000301814207D130B1F0686968C0F3021019
:10196000401C884225D0012423E0012806D002280B
:1019700009D003280CD0012494B11AE031688907FA
:10198000FAD40124F8E731684905F5D40124F3E7D6
:1019900031688903F0D431684903EDD40124EBE7C1
:1019A000F16821F073026968491E42EA011101439E
:1019B000F160B4BB306820F080503060FEF760FE0C
:1019C000074606E0FEF75CFEC01B022801D903248F
:1019D00002E030688000F5D41CBBB8F1000F14D0D1
:1019E000A868297C00027F2202EB510140EA416194
:1019F0007069164A104001437161306840F08050B0
:101A00003060FEF73DFE074613E0A868E968000273
:101A1000090940EA414071690D4A1140084370616B
:101A2000EBE70EE0FEF72CFEC01B022801D90324D1
:101A300002E030688000F5D51CB970696969084317
:101A400070612046BDE8F08100100240FF80FFF980
:101A5000FF80FDFFF8B5054600241D4EB06DC000A7
:101A600002D5FEF7CFFE0DE0B06D40F08050B065BE
:101A7000B06D00F080500090FEF7C4FEB16D21F013
:101A80008051B165B0F5007F04D0802D0AD94FF0A8
:101A900003040DE0802D0BD9A02D01D9022407E00D
:101AA000012405E001D1022402E0702D00D10124BF
:101AB0000848016821F0070121430160006800F037
:101AC0000700A04201D00120F8BD0020F8BD0000B1
:101AD00000100240002002407047FEF7D7BD10B54D
:101AE00096B0442105A8FEF7A8FB14216846FEF72E
:101AF000A4FB4FF40070FEF74FFE08B1FEF7DCFBCD
:101B0000012105910804069002200F9003241094EF
:101B1000119114211291072113911490159005A889
:101B2000FFF76EF908B1FEF7C7FB0F200090019494
:101B3000002002900390049004216846FFF72CF8DF
:101B4000002801D0FEF7B8FB16B010BD02480168AE
:101B500041F470010160704788ED00E02DE9F04F1D
:101B60000268284D284E294FDFF8A4C0294B4FF0BA
:101B7000804AA84209D0504507D0B04205D0B842AB
:101B800003D0604501D0984203D122F070044A6826
:101B90002243DFF88480DFF88490DFF884B0A84225
:101BA0000FD050450DD0B0420BD0B84209D060459F
:101BB00007D0984205D0404503D0484501D058454C
:101BC00003D122F44074CA6822434C6922F0800297
:101BD00022438C68C4620C688462A84207D0984291
:101BE00005D0404503D0484501D0584501D1096989
:101BF0000163016841F0040101600121416102605B
:101C000000F010B8002C0140000400400008004023
:101C1000000C0040003401400040014000440140FD
:101C20000048014030BCBDE8C08F90F8241009077F
:101C300006D501684A68436B22F400421A434A60A1
:101C400090F82410C90706D001684A68836A22F414
:101C500000321A434A6090F82410890706D50168BB
:101C60004A68C36A22F480321A434A6090F824100A
:101C7000490706D501684A68036B22F480221A439B
:101C80004A6090F82410C90606D501688A68836BFB
:101C900022F480521A438A6090F82410890606D5EF
:101CA00001688A68C36B22F400521A438A6090F874
:101CB0002410490611D501684A68036C22F4801289
:101CC0001A434A60016CB1F5801F06D101684A6869
:101CD000436C22F4C0021A434A6090F824100906AB
:101CE00006D501684A68806C22F4002202434A60EB
:101CF00070472DE9F84304460025C4F88450FEF7E8
:101D0000BFFC8046206800684FF0200600076FF097
:101D10007E4716D54346002231042046009700F046
:101D2000C3F970B1206850E8001F21F0800140E83D
:101D30000012002AF6D1E66784F878500320BDE847
:101D4000F88320680068400720D5434600224FF4FE
:101D500080012046009700F0A7F9B8B1206850E84C
:101D6000001F21F4907140E80012002AF6D120688B
:101D7000083050E8001F21F0010140E80012002A5D
:101D8000F5D17834A66025700320D8E76034E66189
:101D900026622560656025760020D0E7016851E85D
:101DA000002F22F4907241E80023002BF6D1016845
:101DB000083151E8002F22F0010241E80023002BF6
:101DC000F5D1016E012908D1016851E8002F22F0F8
:101DD000100241E80023002BF6D12021C0F880102A
:101DE00000210166816670472DE9F0410446002517
:101DF000A34B20682269A168E669114362693243F6
:101E0000114302689F4E32400A43026020684168D5
:101E1000E26821F4405111434160A0692168994270
:101E200001D0226A10438A6822F4306202438A6039
:101E30009549226895488A4214D1D0F8880010F05C
:101E4000030007D0012809D0022805D0032807D0B5
:101E5000102185E0012183E0022181E004217FE05F
:101E600008217DE08A498A4214D1D0F8880010F018
:101E70000C0007D0042809D0082805D00C2807D06A
:101E800010216DE000216BE0022169E0042167E090
:101E9000082165E07F498A4214D1D0F8880010F00B
:101EA000300007D0102809D0202805D0302807D0CE
:101EB000102155E0002153E0022151E004214FE0C0
:101EC00008214DE074498A4214D1D0F8880010F0FE
:101ED000C00007D0402809D0802805D0C02807D0EE
:101EE00010213DE000213BE0022139E0042137E0F0
:101EF000082135E069498A4217D1D0F8880010F4EA
:101F000040700AD0B0F5807F0BD0B0F5007F06D0CE
:101F1000B0F5407F07D0102122E0002120E002210F
:101F20001EE004211CE008211AE09A4217D1D0F8E3
:101F3000880010F440600AD0B0F5806F0BD0B0F587
:101F4000006F06D0B0F5406F07D0102108E00021E7
:101F500006E0022104E0042102E0082100E0102153
:101F60004F4800264FF4004C9A422DD191B10229DE
:101F700005D0042911D0082912D00020012500B372
:101F8000626802EB4201814202D8B0EB023F09D9FC
:101F900001256FE0FEF7BEFEF1E7FEF7DFFEEEE79C
:101FA0006046ECE7010E0302500818187141002347
:101FB000FEF708F93B4AA0F54071914202D821682A
:101FC000C86057E0012555E0E2694FF6EF776245BA
:101FD0002BD1092911D2DFE801F0050812100B10EE
:101FE00010100E00FEF796FE09E0FEF7A5FE06E0D3
:101FF000FEF7B4FE03E0604601E000200125B8B31F
:102000004100606801EB5001B1FBF0F0A0F110015C
:10201000B94208D84FF6F0710140C0F342000143C5
:102020002068C16026E0012524E0092911D2DFE8FB
:1020300001F0050812100B1010100E00FEF76AFEDA
:1020400009E0FEF779FE06E0FEF788FE03E0604651
:1020500001E00020012558B1616800EB5100B0FBA0
:10206000F1F0A0F11001B94203D8216880B2C86034
:1020700000E00125A666E6662846BDE8F08100007E
:1020800000800040F369FFEF00380140001002407B
:102090000044004000480040004C00400050004018
:1020A0000024F400FFFC0F002DE9F0470446089ED1
:1020B0000D46174698464FF0000935E0701C33D0A6
:1020C000FEF7DEFAA0EB0800B04219D8C6B12068CE
:1020D0000168490728D5802D26D0402D24D0C1691C
:1020E000C94309070ED42068082505622046FFF77A
:1020F00055FEC4F8845084F878900120BDE8F0873C
:102100000320FBE7C069C04300050DD421684FF4EC
:10211000006008622046FFF741FE2020C4F88400DA
:1021200084F878900320E9E72068C06935EA000068
:1021300004D00020B842C1D00020DFE70120F9E739
:10214000FEE70907090E002804DB00F1E02080F813
:102150000014704700F00F0000F1E02080F8141D1B
:10216000704702E008C8121F08C1002AFAD1704760
:102170007047002001E001C1121F002AFBD1704707
:10218000FEF78CFAFFF7ABFCFFF786FAFFF75EFA73
:10219000FFF7D2FAFFF7EEFAFFF70AFBFFF7AAFA0A
:1021A000FEE7000000000000000000000102030440
:1021B00006070809A0860100400D0300801A0600EA
:1021C00000350C0040420F0080841E0000093D00D5
:1021D00000127A000024F40000366E010048E80185
:1021E000006CDC0200000000010203040C22000865
:1021F0000000002010000000622100081C220008DE
:1022000010000020F8090000722100080100000001
:0C221000100000000000000000093D006C
:040000050800018965
:00000001FF
